:020000041000EA
:10000000002000081B0100100D0000007D01001001
:1000100000000000000000000000000000000000E0
:100020000000000000000000000000007901001046
:1000300000000000000000007901001079010010AC
:100040007901001079010010790100107901001088
:100050007901001079010010790100107901001078
:100060007901001079010010790100107901001068
:100070007901001079010010790100107901001058
:100080000448054B10B5834203D0044B002B00D02D
:10009000984710BD780300087803000800000000AE
:1000A00006480749091A8B10C90FC91810B549101D
:1000B00003D0044B002B00D0984710BD78030008F4
:1000C000780300080000000010B5074C2378002BCF
:1000D00009D1FFF7D5FF054B002B02D0044800E003
:1000E00000BF0123237010BDB00300080000000012
:1000F00094150010054B10B5002B03D0044905489A
:1001000000E000BFFFF7CCFF10BDC04600000000BC
:10011000B4030008941500107047FFF7FDFF72B696
:100120000F4C104DAC4209DA21686268A368043BA9
:1001300002DBC858D050FAE70C34F3E70A490B4AFF
:100140000020521A02DD043A8850FCDC08480949B4
:100150000860BFF34F8F00F06FF800F01DF8FEE766
:10016000A0150010B8150010B0030008C80500085D
:100170000000000808ED00E0FEE7FEE700B50420FF
:100180007146084202D0EFF3098002E0EFF30880E5
:10019000043000F0BBFDFEE710B562B6034800F086
:1001A000C3F8002000F0BAFEFBE7C04600200010B4
:1001B00010B5002000F090FA10BD704770B5002017
:1001C00000F0EEFC041E28D0144B186000F064FB15
:1001D000411C200000F080FF114B0400186000F06B
:1001E0004DFB411C200000F077FF04000D4B013C4B
:1001F00018600D49200000F06FFFFA210B4D01300F
:1002000028708900200000F067FF094D0130286048
:10021000002000F0C5FC074B186070BD8800000886
:100220008C0000088000000840420F009400000885
:10023000900000088400000810B5204800F0ACF8D9
:10024000B022E02130201E4CD200A35889005B0070
:100250005B08A35063588343635080235B04A3501F
:10026000184B194AE250A02204339201E250FF22B7
:10027000164BE25000F014FFC02201215200A35897
:100280008B43A350FFF799FFFFF798FF104B032014
:100290001A681300BA33198807234B43126A802166
:1002A0009B180022DA605A600A4A00F05FFA0A4896
:1002B00000F022F9094800F05BF910BDD4140010D9
:1002C0000000264084050000010002008C050000AB
:1002D0004C05000878030008CC030008A0140010A7
:1002E0009023034A5B01D058032318407047C0464F
:1002F0000000204010B5902400F047F8074B64013F
:100300001959074A1140074A0A431A5110225968DD
:100310001142FCD000F03DF810BDC0460000204066
:10032000FCFF00000100FA05F8B590260E4C76019E
:10033000070000F02AF8A3590500DB439B0701D111
:10034000FFF7D8FF80239B00E750A259074B1A40C4
:10035000074B1343A351102362681A42FCD02800B4
:1003600000F017F8F8BDC04600002040FCFF000078
:100370000300FA05000000000230800803D00130BD
:100380000238FCD1C046C0467047EFF3108072B609
:10039000704780F310887047014B18607047C04663
:1003A0004C050008044B1B681A00BA3212881B6AFD
:1003B0005043C0187047C0464C050008A02300B544
:1003C0001B06984226D015D8802825D00AD8102898
:1003D00024D0402824D000280BD0154809E0A420C0
:1003E000C00306E08022134B520090421CD098427A
:1003F000F3D100BD104B984218D0104BC018042800
:10040000EBD800F05FFEECEA0F0305000C48F0E7C4
:100410000C48EEE70020ECE70B48EAE70B48E8E77A
:100420000B48E6E70B48E4E71800E2E7A020D7E72F
:10043000FF00520006005200090000A0FFFFFF0F5E
:10044000020052000300520005005200010050005B
:10045000020050000100520010B50020FFF7A2FF7B
:100460000A4B1C682300BC331B68C0180368002BB0
:100470000ADB074B1868FFF7A1FF012263689A6047
:100480009A68002AFCD110BD0248FCE74C05000820
:100490005005000802005000064B1B68BC331B6867
:1004A000C3181B68002B03DA89B241600020704733
:1004B0000148FCE74C05000801008A000368002B96
:1004C00004DA89B2C2608160002070470048FCE70E
:1004D00001008A00064B1B68BC331B68C3181B68ED
:1004E000002B03DAC36800200B6070470148FCE76B
:1004F0004C05000801008A00024B1A68002A00D14E
:100500001860704764050008F0B52C24154E44436C
:1005100030681F000019FF241E0A26402740124C95
:100520001B0C256807602C6A46608360BA352D88ED
:100530006F433F190761370080377F01E7190B4D83
:1005400076014761A4191F043B436419236000230B
:100550008361059BC2610162002B01D01B888381EE
:10056000F0BDC046640500084C05000808100000F6
:10057000F0B50400236987B0026841680393A3685B
:1005800004AD1732C0682B806A80039BA26A059174
:100590000095E16A266A676AFFF7B6FF00213B0013
:1005A0000A0030000091FFF7AFFF2800216B00F038
:1005B00077FB0022AB5E002B06DB1F2213401E3AA6
:1005C0009A401300014A136007B0F0BD00E100E05B
:1005D000F0B585B003931B4B16001C682C235843C1
:1005E0004B4320180769E418002F27D0A569002D78
:1005F00026D13B68002B23DA134B1B6834331B785E
:100600000193436801996068029300F0EBFD0122B9
:100610008A40336812049BB2134333600123FE60A7
:10062000A361039B01996362029800F0DBFD012343
:100630008B409BB2BB60280005B0F0BD034DFAE7CC
:10064000034DF8E7640500084C05000804028A0021
:1006500007028A0073B5002642690400D568019636
:100660002B0CB34221D01B0413601368194B006993
:100670001B68BC331B68C3181B68B34215DA01A999
:10068000FFF728FFB0420CD10198E26903681E0C05
:10069000DBB29A4205D9226A9B009B58002B00D0FE
:1006A000984731002069FFF7F7FEADB2002D09D061
:1006B00063691D6000251B68636AAB4205D09847DB
:1006C0006562A56163691B6873BDA36A002BF8D0DE
:1006D0009847F6E74C0500082C2310B54343034A1E
:1006E0001068C018FFF7B6FF10BDC04664050008CB
:1006F0001A4B70B51A680C00130033331B78834211
:100700002AD9002928D00D681F212B000B400D424B
:1007100022D11100BA310988126A48431900104DDC
:100720008018286022685209934210D30021FFF7F5
:10073000B3FE002122002868FFF7C0FE011E04D18D
:100740002868FFF7A9FE002800D0064870BD62683F
:100750009E00B1500133E5E70348F7E74C05000878
:100760006805000801018A0003018A000B0010B52A
:10077000002A0DD1002914D10B4A0C4C11680A0033
:10078000BA321288096A424352182260180010BD1A
:10079000002906D006490B604A60FFF7A9FF030055
:1007A000F4E7044BF2E7C0464C0500086805000872
:1007B0008803000803018A00F7B51B4F04003B685B
:1007C0000E00002B2BD0DB681A68824229D9002545
:1007D0005B680193A94202D1FFF7D7FD0500386895
:1007E0000368002B19DA1F23012223409A40640971
:1007F000019BA4001C1921680A420CD0914321607E
:1008000000240021FFF748FE002E02D12800FFF748
:10081000C0FD2000FEBD054CF3E7054CF4E7034C9A
:10082000F7E7044CF5E7C0466805000802018800B8
:100830000301880004018A000C4B1B68002B11D0B7
:10084000DB681A6882420FD959681F234209184091
:100850001E3B8340920050581840431E9841044B61
:10086000C01870470348FCE70348FAE7680500082A
:10087000000188000201880004018A00054B1B6802
:100880001A0088321B6812689B181868000AC0B2E8
:100890007047C0464C050008044B1B681A0088329C
:1008A0001B6812689B181868000E70474C050008FA
:1008B000034BE0308000C0588006800F7047C04670
:1008C00000002640024B18694007C00F7047C04621
:1008D00000002740A6220549D2008B580220DB43A6
:1008E0009B0702D00123885818407047000026401B
:1008F00010B5FFF7EFFF0023022801D1014B1B6861
:10090000180010BD70050008084A83009B18D0220B
:100910009200985807221040042806D1C022920065
:100920009B581F22FC30134018437047000026409C
:1009300010B5FFF7E9FF88235B0098421CD00BD865
:10094000012813D0022814D0431E9841104B404276
:100950001840104BC01810BD1223FF33984210D01E
:100960001423FF33984210D00020F4E70A4B186894
:10097000F1E7FFF7BDFFEEE7084A094BD058C00F7B
:1009800001E0FFF79FFFC003E5E7044A054BF5E7E9
:1009900000EE85FF00127A006C050008000026407A
:1009A0000C0500003C050000B023154ADB00D358BD
:1009B00010B59903DB01DB0F890BC371114B01608B
:1009C000D3580F24D904DB01DB0D0381B123DB00F5
:1009D000D358C90C81801900214081721909214026
:1009E000C172D9029B009B0F8373074BC90CD3586C
:1009F00081815A05DB01520FDB0D8271038210BD2C
:100A000000002640840500008C0500008030034B68
:100A1000FF308000C058C00F7047C046000026401D
:100A20000F4B421E1B683F331B78934216D9803010
:100A30007F220C4BFF308000C3581F201A400A70E1
:100A40001A0A02404A701A0C02408A701A01C24007
:100A500000209B009B0FCA700B7170470248FCE797
:100A60004C0500080000264001004A00F0B589B09E
:100A700003AD2800FFF798FFB0230026164ADB00DD
:100A8000D358B34224DAAB7B022B21D0AC88B442DA
:100A90001ED03000ED79039FFFF74AFF220033009C
:100AA00031000190681C00F0C3FB0C00050033000E
:100AB0003A003100019800F0BBFBE6076A083243B8
:100AC0006308801859412A00230000F091FB0600BA
:100AD000300009B0F0BDC04600002640F7B5234BFA
:100AE00006001B683F331B78002B08D000283BD042
:100AF000834204D36946FFF793FF041E01D000260A
:100B000032E03000FFF782FF2300002805D06B465B
:100B10001C79023C23005A1E93416A461778547888
:100B20009578002BEBD0002CE9D0002DE7D03000D9
:100B3000FFF7FEFE002306002A002000190000F047
:100B400077FB00230C0005003A003000190000F08C
:100B50006FFBE6076A0832436308801859412A0090
:100B6000230000F045FB06003000FEBD4C050008E8
:100B700010B5041E04D1FFF779FF002806D008E065
:100B8000064B1B683F331B78834203D22000FFF7DC
:100B9000CFFE10BDFFF7A2FFEFE7C0464C050008EF
:100BA00070B50500FFF784FEE035074BAD0004008B
:100BB000E8580F231840FFF7DBFF0123A3405B0831
:100BC0001818E04070BDC0460000264030B5FF2533
:100BD00003242A000440E400A24089012940D243B2
:100BE000A14083B200280ADBC0240B4B80088000A0
:100BF000C018A400035913400B43035130BD0F200C
:100C00000340083B05489B089B001B18D86902401D
:100C10000A43DA61F2E7C04600E100E000ED00E0DF
:100C2000144B30B51B6807241A002C3212781F2A87
:100C300015D882081500A5432C1E0FD1033420407F
:100C4000A04081401B68920020339B180A00FF21BE
:100C500081401C68624011406140196030BD1A68D3
:100C6000802320401B06034380208001091889004F
:100C70008B50F3E74C050008064B10B59A68064CFC
:100C800010308300A24202D19858995010BD034AF7
:100C9000D058FBE700ED00E0000000080000001065
:100CA000F7B504000E00002801D1144C17E0002312
:100CB000C55E134B4188134F0193002D11DB2800B3
:100CC000FFF7AEFF61682800FFF780FFBB68019A5D
:100CD0000024934203D131002800FFF7CDFF20000C
:100CE000FEBD08B26168FFF771FFBB68019A9342CD
:100CF000DBD131002800FFF7BFFFD6E70100560027
:100D00000000000800ED00E0FEE7000002680A4B6A
:100D100010B51A6042685A6082689A60C268DA60E8
:100D200002691A6142695A6182699A61C269DA612B
:100D3000FFF7EAFF10BDC04690030008B0235B0533
:100D40005A782120002A01D05878C0B27047B023C9
:100D50005B059A89002A02D0988980B2704780206A
:100D60004000FBE7254B73B586000D00F4580429BD
:100D700001D0012925D100200EE0A3682B420AD121
:100D8000E36829001A685B6868460193009223684B
:100D900098471B4B1C606469002C0AD0194B984281
:100DA000EBD1012DE9D1164A174B126815489A511B
:100DB00076BD012DFCD1134B9842F4D0124B9C51BF
:100DC000F6E7022914D026006469002CFBD100202C
:100DD000002EEDD0B3682B4208D1F36829001A68C1
:100DE0005B68684601930092336898473669EFE77D
:100DF000034B1B68181EDBD01E69E8E7B40500082A
:100E0000B0050008FF0042009C0500081A4B1B6853
:100E1000190088311A6809685118096801621900B7
:100E20008C3109685218126842621A0046321278F0
:100E3000002A1FD09A68E0321268D2061AD5F22230
:100E4000DB68D2019A580260F022D2019A584260BF
:100E50000A4A9A5882600A4A9A58C260094A9A58BD
:100E60000261094A9A584261084A9A588261084ABE
:100E70009B58C3617047C0464C05000804780000C9
:100E8000087800000C78000010780000147800004A
:100E9000187800001A4B1B681900883109681A6815
:100EA0005218016A116019008C3109681A685218C9
:100EB000416A11601A0046321278002A1ED09A68E0
:100EC000E0321268D20619D5F0224168DB68D201FF
:100ED000995081680B4A9950C1680B4A9950016931
:100EE0000A4A995041690A4A99508169094A9950B8
:100EF000C169094A99500168E83299507047C04663
:100F00004C05000804780000087800000C78000008
:100F1000107800001478000018780000F7B505007C
:100F2000FFF70CFF564F01907B68002B00D06FE05D
:100F3000FFF72BFA7B680090002B00D07CE0514B30
:100F400007271C682300BA331B885F43236AFB18FA
:100F50001A68002AFCDADB68DA001ED51B0F4A4843
:100F60001E07FFF753FF22008832126823684749A3
:100F70009B181A6801980A40212862D1902000012C
:100F800002431A6022008C32126823689B181A6888
:100F90000A40104318603C4B3343802292051343B0
:100FA000226A0024BF18FB607C607B68FFF7CFFEDD
:100FB0008023344F5B00984246D1280000F068FA45
:100FC0003F6807223B00BA331E883B6A5643F3183A
:100FD0001A68002AFCDADD68EB0003D52801000955
:100FE000FFF758FF00222A4B00981D403B6AF31878
:100FF000DD605A60FFF7CDF9002C10D1204B5B6803
:10100000002B03D008210120FFF7ACFE2000FEBD1D
:1010100001210800FFF7A6FE041E00D188E7184B47
:101020005B68002B03D002210120FFF79BFE194BC8
:101030009C42EBD0184CE9E704210120FFF792FE17
:101040007DE7802040009BE73B681A00BC32196AAC
:10105000126852181168002910DBBA331B889B18DC
:101060001B68002B0ADB04230C4A11690B43136134
:10107000012D01D030BFA3E720BFA1E7054C9FE7BA
:10108000B40500084C05000874050008FF00FFFFC8
:10109000FFFFFFDF05004200FF00420000ED00E01F
:1010A000C0228020064952008B58C0059B009B0837
:1010B00003438B50802388581B0603438B50704793
:1010C0000000264002B4714649084900095649000B
:1010D0008E4402BC7047C046002243088B4274D342
:1010E00003098B425FD3030A8B4244D3030B8B4229
:1010F00028D3030C8B420DD3FF22090212BA030C32
:101100008B4202D31212090265D0030B8B4219D312
:1011100000E0090AC30B8B4201D3CB03C01A524132
:10112000830B8B4201D38B03C01A5241430B8B427A
:1011300001D34B03C01A5241030B8B4201D30B0363
:10114000C01A5241C30A8B4201D3CB02C01A52418A
:10115000830A8B4201D38B02C01A5241430A8B424D
:1011600001D34B02C01A5241030A8B4201D30B0236
:10117000C01A5241CDD2C3098B4201D3CB01C01A50
:10118000524183098B4201D38B01C01A524143095A
:101190008B4201D34B01C01A524103098B4201D348
:1011A0000B01C01A5241C3088B4201D3CB00C01AB5
:1011B000524183088B4201D38B00C01A524143082D
:1011C0008B4201D34B00C01A5241411A00D2014652
:1011D000524110467047FFE701B5002000F006F8C5
:1011E00002BDC0460029F7D076E770477047C04679
:1011F000002B11D1002A0FD1002900D1002802D0E4
:101200000021C943080007B4024802A14018029017
:1012100003BDC046D9FFFFFF03B4684601B502987D
:1012200000F034F8019B9E4602B00CBC7047C046EB
:10123000F0B5CE469946030C9C46130447461B0C5A
:101240001D000E0061460404240C80B50700100C3C
:101250004B436543414360432C0CC01820188C4617
:10126000834203D980235B029846C44449467943AC
:101270005643030C2D042D0C8919634400044019B6
:10128000C918C0BCB946B046F0BDC046F0B5574617
:101290004E464546DE46E0B504000D0092469946AE
:1012A00083B08B4230D82DD04946504600F0D8F854
:1012B00029000600200000F0D3F8331A9846203B9E
:1012C00034D49B4653465A46934042461F005346E9
:1012D00093401E00AF423BD8AF4200D179E05B465D
:1012E000A41BBD41002B00DA76E00022002300920F
:1012F000019301235A4693400193012342469340B0
:10130000009329E08242CFD900220023009201936A
:101310000C9B002B01D01C605D600098019903B00C
:10132000F0BCBB46B246A946A046F0BD42469B462D
:1013300020239B1A5246DA40414613004A468A400F
:10134000170042461F43534693401E00AF42C3D985
:1013500000220023009201934346002BD8D0FB07C4
:1013600072081A4346467B080EE0AB4201D1A24206
:101370000CD8A41A9D41012024196D410021013E81
:1013800024184D41002E06D0AB42EED9013E24195F
:101390006D41002EF8D1009801995B460019694112
:1013A000002B24DB2B005A464446D3402A00E2405F
:1013B0001C005B461500002B2ADB26009E403300F4
:1013C00026004746BE403200801A994100900191A4
:1013D0009EE7A342BCD882E74246202300219B1A05
:1013E0000022009101920122DA40019285E74246F3
:1013F00020239B1A2A0046469A402300F340444685
:1014000013432A00E2401C005B461500002BD4DA8F
:1014100042462F002023260097409B1ADE403B00C7
:101420003343CDE71C2101231B04984201D3000C58
:1014300010391B0A984201D3000A08391B09984247
:1014400001D30009043902A2105C40187047C0465D
:10145000040302020101010100000000000000007D
:1014600010B5002903D1FFF7DDFF203002E00800AE
:10147000FFF7D8FF10BDC046F8B5C046F8BC08BCA1
:101480009E467047F8B5C046F8BC08BC9E467047FB
:1014900001B40248844601BC604700BF65020008F1
:1014A0000300000001000000010000000000000037
:1014B00005036000040000000100000000000000BF
:1014C0000100000006046000080000002C05000870
:1014D000B101001000002040000024400000004046
:1014E00000000000000023400000304000003140B8
:1014F00000009F40000022400000104000009D407E
:101500002020202020101010101D1D8017007500B5
:10151000FF03060206003604102000007FC0000012
:1015200000040000000000000019324B647D000040
:10153000000000804000080B100000000000FF01C8
:101540002002001F00800004FF0810180010001483
:101550000018001C4044484C5000000008100000D7
:101560000800000004000000041000000012000049
:10157000042100000021000000160000401140027C
:10158000C41300138013A01340138813A813200062
:101590001C00000000000000F4FCFF7F01000000C0
:1015A000000000100000000880000000C0150010BE
:1015B00080000008F8020000B003000818020000D4
:1015C00000093D0000093D0000127A0000093D00BD
:1015D000A00F000004000000F5000010C90000107A
:1015E00080B230B5C400002820D0114B1868030029
:1015F000BA331A8807235343026A9A1811680029DC
:10160000FCDA3E210B4A062511600B4A0B4911609A
:10161000A3210B4AC90055500A495450006A545836
:101620001B18002058605358002BFCDA30BDC04610
:101630004C05000804012640080126401E1F00003A
:10164000000026401C05000010B54378FF2B11D187
:1016500000F00AF90400032000F026F90121C36814
:101660005B681A680A431A601A680A42FCD12000B3
:1016700000F0E2F810BDF7B507000020019100F07E
:1016800013F93F4C050023681A005033BC3216682A
:101690001B788619002B5CD000F0EEF80090032830
:1016A00018D000F0E1F80400364A374BD158002931
:1016B000FCDAD358002B37DB344D009B032B05D1CC
:1016C0000121002000F0E8F80028F9D1200000F006
:1016D000B3F80AE0062000F0E7F82368BC331B6883
:1016E000C0180368002B02DA284D2800FEBD002038
:1016F00000F09AF8264B9842F6D00023254A1900AC
:101700000120126800F0A0F8041EEDD1002000F0C6
:101710008BF81F4A204B904203D09C42E4D0013406
:10172000F4E79C42BDD1DFE7012128001B4A00F00D
:1017300093F80028C0D10198FFF752FF002F06D080
:101740003368002BFCDB00F09FF80500B5E7144D73
:10175000B3E700F089F801210400104A280000F0E6
:101760007BF8002808D1002F08D03368002BFCDB61
:1017700000F08AF80500A9E7044DA7E7084DA5E7A2
:101780004C050008000026401C0500000500520022
:101790000101880060050008F049020050050008BA
:1017A00001005000184BF7B51B6818495A6804230C
:1017B0000C6923430B61012824D030BF1300FC3394
:1017C0001B69002B1DD1A324114B12481249E400C0
:1017D00007681E590D680195104D056006251D51BD
:1017E0003E240C600E4C3E351D511D59002DFCDA77
:1017F0000C4CFC321461A322D20007609E50019B66
:101800000B60F7BD20BFD9E74C05000800ED00E0F4
:101810000000264008012640040126401E1F00004B
:101820001C050000AAAAAAAA01B40248844601BC69
:10183000604700BF3908001001B40248844601BC6B
:10184000604700BF9303001001B40248844601BC06
:10185000604700BFD105001001B40248844601BCB6
:10186000604700BFBD04001001B40248844601BCBB
:10187000604700BF8B03001001B40248844601BCDE
:10188000604700BFE102001001B40248844601BC79
:10189000604700BF5904001001B40248844601BCEF
:1018A000604700BFB907001001B40248844601BC7C
:1018B000604700BFA503001000000000000000000A
:1018C0000000000000000000000000000000000018
:1020000000F80F08712300100D000000E5230010F8
:10201000E5230010E5230010E52300100000000078
:10202000000000000000000000000000E12300109C
:10203000E123001000000000E1230010E123001064
:10204000E1230010E1230010E1230010E123001040
:10205000E1230010E1230010E1230010E123001030
:10206000E1230010E1230010E1230010E123001020
:10207000E1230010E1230010E1230010E123001010
:1022E0000348044B834202D0034B03B118477047A5
:1022F000F8280008F8280008000000000548064BF0
:102300001B1AD90F01EBA301491002D0034B03B1F3
:1023100018477047F8280008F82800080000000057
:1023200010B5064C237843B9FFF7DAFF044B13B11D
:102330000448AFF300800123237010BDE429000896
:10234000000000008CE2001008B5054B1BB10549E8
:102350000548AFF30080BDE80840FFF7CFBF00BFDE
:1023600000000000E82900088CE200107047704768
:10237000FFF7FCFF72B6144C144DAC4209DA216829
:102380006268A368043BA2BFC858D050FAE70C3477
:10239000F3E70F490F4A00209142BCBF41F8040BFC
:1023A000FAE70D480D490860BFF34F8F00F084F83D
:1023B00000F068F8FFF7DBFF08F076FD00F020FB87
:1023C00008F096FDFEE7000098E20010B0E2001071
:1023D000E4290008383100080020000808ED00E07A
:1023E000FEE7FEE700B504207146084202D0EFF395
:1023F000098002E0EFF30880043006F019FDFEE7E3
:1024000008B5012003F026FD08BD704710B5002077
:1024100006F0F6FB00B910BD0446124B186005F03B
:10242000FBFD0130B4FBF0F00F4B186005F00CFE23
:102430000130B4FBF0F40D4B1C60013C0C4BA3FBD2
:1024400004239B0C01330B4A13700B4BA3FB043486
:10245000A4090134094B1C60002006F0D1FB084B95
:102460001860D8E7F0220008EC220008F4220008E7
:1024700083DE1B43E0220008D34D6210E4220008F3
:10248000E822000808B5094803F0A6F8FFF7BDFFE9
:10249000FFF7BCFF00221146032003F03BFD044878
:1024A00003F096FB034803F0E1FB08BD40DE00109B
:1024B000202A000808D20010EFF3108172B6074AF4
:1024C000D2F8883043F47003C2F88830BFF34F8FDE
:1024D000BFF36F8F81F31088704700BF00ED00E0FD
:1024E00008B500F057F900F00DF800F0BBF800F067
:1024F00045F800F04BF808BD08B500F02DF800F0E5
:102500005FF808BD08B50F21012005F08FFC0022FF
:102510000F21012005F006FB0F21012005F044FCEE
:102520000021084605F082FC00221146104605F005
:10253000F9FA0021084605F037FC0721002005F0D4
:1025400075FC00220721104605F0ECFA0721002057
:1025500005F02AFC08BD000008B5054801F0D0F8D8
:10256000044801F0CDF8044801F0CAF808BD00BFE6
:1025700044D2001040D200103CD2001008B5002216
:1025800011462F2005F0DAFB08BD000010B5084CFD
:10259000084A0421204603F0DFF9074A06212046B5
:1025A00003F0DAF9054A0721204603F0D5F910BDFA
:1025B00000033140E4D20010ACD2001074D20010FD
:1025C00008B5184801F09CF8174801F099F8174829
:1025D00001F096F8164801F093F8164801F090F8CB
:1025E000154801F08DF8154801F08AF8144801F0FB
:1025F00087F8144801F084F8134801F081F8134873
:1026000001F07EF8124801F07BF8124801F078F8EA
:10261000114801F075F8114801F072F8104801F006
:102620006FF808BD20D300101CD3001018D3001081
:10263000E0D20010A8D2001070D200106CD20010AE
:1026400068D2001064D2001060D200105CD200107A
:1026500058D2001054D2001050D200104CD20010AA
:1026600048D20010024B33229A601A61704700BFB3
:102670000020304008B50021084605F037FD002154
:10268000084605F065FD08BD08B505F09DFC002075
:1026900005F06EFC002005F081FC05F08BFC08BD08
:1026A000FEE7000010B506F0A5FBC0B9124BD3F849
:1026B000004F04F03F0406F08DFB30B1012006F01E
:1026C0007FFB0E4B9B6C002B13DB0B4BC3F8004FB7
:1026D00005F0A2FD05F096FD012005F0B1FD0120F9
:1026E00006F00AFF06F0B0FE06F088FF06F072FF63
:1026F00010BD0620FFF7D4FF00F027400000274060
:1027000030B583B00C4D0024009423462246214668
:10271000284603F0C9F900942346224601212846A1
:1027200003F0C2F9054805F04FFD08B903B030BD0C
:102730000520FFF7B5FF00BF0000314040420F0009
:1027400008B5074805F07CFE20B9064805F026FFCD
:1027500018B908BD0420FFF7A3FF0420FFF7A0FF6E
:1027600044D30010400D030008B50949012005F0CD
:10277000ADFF30B942F21071012006F035F818B9FA
:1027800008BD0320FFF78CFF0320FFF789FF00BF80
:1027900024D3001010B507220021322005F0CEFA14
:1027A000B421002006F090FBFFF77CFF05F02EFE21
:1027B0000021084605F0CCFC002005F037FC012084
:1027C00005F01CFC002005F0A9FB454B1B6893F8A5
:1027D000434003E0204605F053FF013C002CF9D1B3
:1027E0000021012005F060FD002005F09FFC00287D
:1027F0006AD00021084605F057FD0021084605F083
:1028000075FCFFF77DFF012005F0E8FB002005F0D7
:102810000DFC002005F0F2FB002005F07FFB0021FD
:10282000012005F041FD0021084605F03DFD002195
:10283000022005F039FD0021032005F035FD0021BF
:10284000042005F031FD0021052005F02DFDFFF7E6
:1028500077FFFFF70FFFFFF787FFFFF715FF002157
:10286000084606F02BFF012005F072FB05F0CAFCBC
:10287000012005F0E5FC6421002006F025FBFFF7B0
:10288000C5FD0021084606F019FF164800F038FF84
:1028900000B101BE144800F033FF00B101BE13487F
:1028A00000F02EFF00B101BE114800F029FF00B179
:1028B00001BE104800F024FF00B101BE0E4800F038
:1028C0001FFF00B101BE10BD05F01AFD40F211134B
:1028D00098428ED10121002005F008FC89E700BF55
:1028E000C02D000840D300103CD3001038D3001096
:1028F00034D3001030D300102CD3001008B5044896
:1029000006F076FC08B1002008BD0248FCE700BFD5
:10291000F82200080000020610B500F0EFFE0446A1
:1029200030B1FFF7DDFDFFF7E7FD5CB1204610BDDC
:1029300001F012FF04460028F3D140F6E44101F013
:1029400059FFEEE7FFF7DAFF0446EFE700B101BEFB
:10295000704700B585B08DF80C208DF80D3001233F
:10296000019300230093022303AA01F055F9FFF716
:10297000EDFF05B05DF804FBF0B587B005460E46E7
:102980008DF80F20012401940027009723460DF1B4
:102990000F0201F041F9FFF7D9FF01940097234698
:1029A0000DF117023146284601F082F9FFF7CEFFFC
:1029B0009DF8170007B0F0BD2DE9F04184B0044642
:1029C0000D461E468DF80F20012701974FF0000895
:1029D000CDF800803B460DF10F0201F01DF9FFF725
:1029E000B5FF0197CDF800809DF828303246294682
:1029F000204601F05DF9FFF7A9FF04B0BDE8F081C2
:102A0000F0B52DED028BB9B000258DF82050ADF852
:102A100022505C4B0993FFF77FFFFFF797FF4FF4BE
:102A2000E1330093FF231A462821292006F0BAFF3C
:102A3000FFF78CFF544808F099F8544808F0FEF866
:102A40000AAC2B4630223121204601F059F8FFF71D
:102A50007DFF08A9204601F0C5F8FFF777FF0F2298
:102A600019212046FFF788FF07464F221E212046E6
:102A7000FFF782FF06463946454808F077F83146A9
:102A8000444808F073F85723202219212046FFF705
:102A900060FF2B4660221E212046FFF75AFF0AAC3A
:102AA0000625009504ABA82219212046FFF784FFD4
:102AB000009506AB68221E212046FFF77DFF9DF89A
:102AC0001160360236B29DF810301E439DF8134057
:102AD000240224B29DF812301C439DF815502D029B
:102AE0002DB29DF814301D439DF819301B021BB206
:102AF0009DF8182013439DF81B20120212B29DF876
:102B00001A100A439DF81D10090209B29DF81C0015
:102B100001430291019200932B46224631461E4802
:102B200008F024F807EE906AF8EEE77A9FED1B7A3A
:102B300006EE904AB8EEE68A28EE078A06EE905A2C
:102B4000F8EEE68A68EE878A67EE877A17EE900AD3
:102B500007F0B4F804460D4618EE900A07F0AEF8F8
:102B6000CDE9020118EE100A07F0A8F8CDE900013E
:102B700022462B460A4807F0F9FF4FF4FA7001F09D
:102B800033FE8CE7801A060058D3001064D300107F
:102B900084D30010B8D30010ECD3001014F21C3A08
:102BA00028D40010000000000230800803D001305B
:102BB0000238FCD100BF00BF7047EFF3108072B63F
:102BC000704780F31088704701BE0148704700BF0E
:102BD00002020204024B0B600923136000207047BD
:102BE0005823000808B5407806F00AF808BD000030
:102BF00038B5054614468A4294BF00230123834218
:102C000005D08A422CBF00210121814207D006F065
:102C100015FC054BA3FB0431890C06F055F905B1F1
:102C200038BDFFF7F3FBFBE783DE1B432DE9F041E3
:102C300004460A78A2F10D03DBB2012B04D90F2A56
:102C40002FD14E78013600E04E78002005F0A0FA32
:102C50000746002005F06AFA05F0B2FF20FA07F8EF
:102C6000304605F0ADFF20FA07F763786BB1F1B29B
:102C7000607805F03BFA054663789BB958B93A4647
:102C800041460020FFF7B4FF0CE03A4641460120E0
:102C9000FFF7AEFFEBE7424639460020FFF7A8FFFB
:102CA00000E0024D2846BDE8F08100BF01020204A9
:102CB000F8B504460139072935D8DFE801F0040AE0
:102CC000340634343408002604E0022602E00326E9
:102CD00000E00126002005F05BFA0746002005F021
:102CE00025FA05F06DFF20FA07F720FA06F563785C
:102CF0006BB13146607805F02BFA064663789BB9D4
:102D000058B92A4639460020FFF772FF0CE02A46E0
:102D100039460120FFF76CFFEBE73A4629460020D1
:102D2000FFF766FF00E0014E3046F8BD00020204E6
:102D300008B519B1407805F093F908BD407805F061
:102D4000B9F9FAE708B5407805F0A2F908BD000026
:102D50002DE9F84304460E461546DDF82080DDF8DF
:102D6000249001279F404FEA520C1CEB00004FF0CB
:102D7000000341F1000107F049F8C9F80000B8422A
:102D800001D9C9F80070B8F1000F18D098F8007098
:102D9000D9F8002000232046314607F037F80246D4
:102DA0002946384602F072FB0028B8BF4042D8F8E6
:102DB0000430834201D3002002E0024800E00020FA
:102DC000BDE8F8830002020408B590F800C01CF0CA
:102DD000020F06D14A1E41780CF0030004F0A2FE57
:102DE00008BD00234A1E41780CF0030004F0FEFEEB
:102DF000F6E770B584B004460D46164605F010FFA0
:102E00000146237813F0020F0ED013F0010F24D0E7
:102E10001D2303AA019200962A464801C90EFFF716
:102E200097FFE0B104B070BD13F0010F13D0102371
:102E300003AA019200962A4608460021FFF788FF60
:102E40000028EFD12078039A013A617800F003005E
:102E500004F068FEE6E70823EAE71523D9E7039BB9
:102E60005A09207803F01F03013A617800F003004B
:102E700004F0BCFED6E708B50378417803F0030000
:102E800005F0E7FE08BD08B531B10378417803F0DD
:102E9000030004F089FF08BD0378417803F00300C4
:102EA00004F0C4FFF7E708B50378417803F00300A6
:102EB00004F0EAFF08BD00000048704750DC001035
:102EC0002DE9F04182B007460D469046084602F0D3
:102ED0000BFBC6B2002401E00134E4B2B44213D2C9
:102EE00005238DF804308DF805508DF8064001A8B3
:102EF00000F006FC03460028EED13D707C700122F4
:102F0000BA70C7F8048000E0024B184602B0BDE872
:102F1000F08100BF020D020430B583B00C460546B7
:102F200078B184B105238DF8043023788DF805300D
:102F300063788DF8063001A800F0E2FB28B103B0F9
:102F400030BD01BEEDE701BEECE7226863682A6090
:102F50006B600123AB70F2E708B5034648B11A78FD
:102F6000122A08D0032A0AD95A68126818469047CC
:102F700008BD01BEF3E71846FFF7E4FEF8E7184680
:102F8000FFF791FFF4E710B5034648B1187812280F
:102F900008D003280AD9586844681846A04710BDCD
:102FA00001BEF3E71846FFF7C3FEF8E71846FFF740
:102FB0006AFFF4E710B5044668B12046FFF7CCFF7E
:102FC00098B12378122B08D0032B0AD963689B6829
:102FD000204698470AE001BEEFE72046FFF702FED1
:102FE00004E02046FFF747FF00E0002010BD10B5C9
:102FF000034648B11878122808D003280AD958681F
:10300000C4681846A04710BD01BEF3E71846FFF795
:10301000DBFDF8E71846FFF7ECFEF4E708B50346DA
:1030200048B11A78122A08D0032A0AD95A681269B4
:103030001846904708BD01BEF3E71846FFF738FE73
:10304000F8E71846FFF7C0FEF4E710B582B0044673
:1030500090B1A37803B901BE05238DF8043023781D
:103060008DF8053063788DF8063001A800F070FB0C
:103070000023A37002B010BD01BEEAE708B5034605
:1030800048B11A78082A08D0092A00D001BE18468B
:1030900000F0C6F908BD01BEF3E7184600F0B6F827
:1030A000F8E708B5034648B11878082808D0092879
:1030B00000D001BE184600F0F9F908BD01BEF3E7E3
:1030C000184600F0DFF8F8E708B5034648B11A786B
:1030D000082A08D0092A00D001BE184600F006FAD6
:1030E00008BD01BEF3E7184600F0FCF8F8E710B59C
:1030F0000446B8B12046FFF7C1FF00B101BE02216E
:103100002046FFF7E1FF00B101BEB4F8781059B9CD
:103110002378082B10D02378092B11D094F87A301B
:1031200093B110BD01BEE5E702222046FFF7B9FFCB
:103130000028EDD001BEEBE7204600F033F8EAE7C7
:10314000204600F037F9E9E7204600F001FBE8E708
:1031500000280CDB00F01F024009012393402030BF
:10316000034A42F82030BFF34F8FBFF36F8F704791
:1031700000E100E00023032B06D8054A52F8232083
:1031800022B90133DBB2F6E7002070470120704717
:103190008C2B00088000C0B20844C0B20230C0B21C
:1031A0007047000010B50446443002F069FAA17877
:1031B000124802F06FFA63789B00DBB2A2781344E6
:1031C000DBB203F13400FFF7C3FF62789200D2B2A2
:1031D000A3781344DBB2032B07D8094A002142F835
:1031E0002310FFF7C7FF10B110BD01BEF9E7054876
:1031F00001F0A6FA044B00221A70F5E700002A40FD
:103200008C2B00087C230008882B0008054B9B684A
:10321000DBB28278012090401840003818BF0120AE
:10322000704700BF00002A4038B5022922D0082983
:1032300020D0012914D001BE19E000231D43013420
:10324000E4B2032C0FD875B90C4B53F824000028B6
:10325000F3D0FFF7DBFF08B10123EFE70023EDE731
:1032600000242546EDE785F00105054B1D70044B54
:10327000187838BD024B00221A70F8E78C2B000832
:10328000882B0008022A27D810B50C468378032B18
:1032900000D901BE114910331B02CA5822F0004266
:1032A000CA50436C23F0C003436443F0800343647B
:1032B0008378032B00D901BE084910331B02CA587A
:1032C00042F00042CA5081784078FFF763FF014620
:1032D000204600F04DFE10BD0148704700002A4016
:1032E0000106020402291ED88378032B00D901BEEF
:1032F0000E4910331B02CA5822F00042CA50436CD8
:1033000023F03002426443F0300343648378032B9C
:1033100000D901BE054910331B02CA5842F00042D1
:10332000CA50002070470248704700BF00002A4082
:103330000106020400280CDB00F01F0240090123F3
:1033400093402030034A42F82030BFF34F8FBFF341
:103350006F8F704700E100E00023392B06D8054A43
:1033600052F8232022B90133DBB2F6E70020704780
:1033700001207047A02B0008427812B983781C2BDB
:1033800005D9012A06D001BE40F2FF30704703F193
:103390003800704780781C28F5D855307047C0EB4E
:1033A000C00300EB830051FA80F0C0B20630C0B217
:1033B0007047000010B50446443002F013F96378FA
:1033C000CBB91248A17802F019F92046FFF7D4FFD3
:1033D000FFF7B0FF6378C3EBC30203EB8203A2786D
:1033E0001344392B09D80A4A002142F82310FFF769
:1033F000B3FF20B110BD0748E4E701BEF7E7064878
:1034000001F09EF9054B00221A70F3E700002840F6
:10341000A02B0008000029408C2300089C2B0008EA
:1034200043786BB9074B084A1268B2F862100B4434
:103430008178B2F8642002FB01335868C00F7047EE
:10344000024BF0E700002840C02D00080000294092
:1034500038B5022922D0082920D0012914D001BE74
:1034600019E000231D430134E4B2392C0FD875B99B
:103470000C4B53F824000028F3D0FFF7D1FF08B11C
:103480000123EFE70023EDE700242546EDE785F073
:103490000105054B1D70044B187838BD024B002206
:1034A0001A70F8E7A02B00089C2B0008022A19D8F4
:1034B00038B504460D46B0F8783003B901BE636CE8
:1034C00023F0C003636443F080036364A1786078F1
:1034D000FFF765FF0146284600F04AFD08B9A4F849
:1034E000780038BD0048704701060204022908D858
:1034F000436C23F03002426443F030034364002005
:1035000070470148704700BF0106020403381828BD
:103510001ED8DFE800F00D1D1F1D1D0F111D151D0C
:103520001D1D1D1D171D191D1D1D1D1D1D1B1300FE
:10353000094870470948704709487047094870476B
:10354000094870470948704709487047094870475B
:103550000020704708487047F8DC001024DD001098
:1035600020DD00101CDD0010FCDC0010F4DC00107D
:10357000F0DC0010ECDC001028DD00100338182807
:1035800016D8DFE800F00D151715150D0F151115DC
:10359000151515150D150D151515151515130D000A
:1035A00001207047022070471020704702207047AA
:1035B000002070471A2070472DE9F0470D461E463F
:1035C00004282ED0044617461D2839D823461E4A03
:1035D00032F81490621C1D2A27D8D2B21A4931F849
:1035E000128001229A40194B13400BB32046FFF77B
:1035F0008DFFA6F800808246E0B12046FFF7BEFFAF
:10360000A84217D93AF815304B4417FA83F33380A0
:103610006B1C83420EDA3AF81380C8441FFA88F80C
:1036200008E00F460D250524D0E740F23118D8E711
:103630004D4435803388434504D20020BDE8F087EF
:103640000348FBE70248F9E7B0DC0010280B0A0C3E
:10365000000D020410B582B00446084611461A4611
:103660000DF10603FFF7A8FF78B9BDF80630C3F3E4
:10367000C70103F00702635C012101FA02F2134063
:10368000003B18BF0123049A137002B010BD10B59F
:1036900082B00446084611461A460DF10603FFF7AC
:1036A0008BFF68B9BDF80630C3F3C70C03F00703FE
:1036B00014F80C20012101FA03F3134304F80C3031
:1036C00002B010BD10B582B00446084611461A4635
:1036D0000DF10603FFF770FF70B9BDF80630C3F3B4
:1036E000C70C03F0070214F80C1001239340DB43CE
:1036F0005BB20B4004F80C3002B010BD00207047E4
:1037000070B584B00446FFF758FA05460DF10F0373
:103710000093A378627821780B48FFF79BFF064659
:1037200018B99DF80F3033B1084E2846FFF749FA13
:10373000304604B070BDA378627821780248FFF764
:10374000A6FF0646F1E700BF882C0008010D020421
:1037500038B50446FFF731FA0546A3786278217838
:103760000448FFF7AFFF00B101BE2846FFF729FA72
:1037700038BD00BF882C0008002807DB00F01F02BE
:10378000400901239340024A42F82030704700BFAD
:1037900000E100E000280CDB00F01F0240090123DB
:1037A00093402030034A42F82030BFF34F8FBFF3DD
:1037B0006F8F704700E100E02DE9F04782B00646C8
:1037C0008846174699461E230371FF230372C3716F
:1037D00000230375504B1D68FF2906D1FF2F0BD125
:1037E000002D00F0928000240FE015224B49404646
:1037F00000F0DAFD0540F1E715224949384600F0AE
:10380000D3FD0540ECE70134E4B225FA04FC1CF0DA
:10381000010FF8D017238DF804308DF805400023F0
:103820008DF806300DF1040A534615223B494046F7
:1038300000F07EFD0546534615223949384600F012
:1038400077FD8246002D62D0002862D02A78037866
:103850009A4204D0334C204602B0BDE8F0876A7823
:1038600043789A4201D02F4CF5E717238DF80030AA
:10387000204600F069FC8DF8010000238DF802302D
:103880006846FFF73DFF04460028E4D19DF8050097
:1038900000F05AFC244B53F820303360019BB38076
:1038A0001B0CB3710C21284601F07CFD0446002856
:1038B000D1D186F807800C21504601F073FD0446F3
:1038C0000028C8D13772B9F1000F11D006F10C03EE
:1038D00099E8030083E80300002CBCD10023134ABD
:1038E0000121304600F08AFC0028B4D1104CB2E728
:1038F00001231A46311D06F10C0001F013FE0446A7
:10390000B0FA80F35B093375E6E7064CA3E7054C94
:10391000A1E7044C9FE700BFD0DD001070D5001078
:10392000C4D50010000902048CDD0010A08601003F
:103930000109020470B504460368CBB10023A4F862
:103940008E3084F89030C4F89430C4F89830C4F8BD
:103950009C30C4F8A030224652F8180B02F0F0FF59
:103960000546607900F0F0FB06461DB1284670BDA3
:1039700001BEE3E7114A2146607900F04BFD226861
:10398000136843F0004313600023C4F8A430C4F864
:10399000A830C4F8AC30C4F8B030C4F8883084F82B
:1039A0008C30074B33F91640064A0321204600F0BD
:1039B0002BFB2046FFF7E0FED8E700BF253A0010BA
:1039C00070DD0010C939001070B5154D2E6800F07B
:1039D00001FC04462860054655F8180B294603F0FB
:1039E000F4FCB4F88E3013B90D4B1E6070BD29463F
:1039F000206803F021FA10F4803FF5D1B4F88E303E
:103A0000032B03D00023A4F88E30EDE70123A4F8A4
:103A10008E30214651F8680B2A4603F00FFAE3E78F
:103A2000B02C000800B583B00B46114650F8182B97
:103A300000920190022B05D0042B03D0082B0AD052
:103A4000012005E0684603F065F8B0FA80F040090F
:103A500003B05DF804FB684603F0BEF8B0FA80F0EE
:103A60004009F5E730B583B0044690B1206840B115
:103A700004F1180103F042F8206803F019F800235C
:103A8000236023791E2B06D194F8B43033B303B0EE
:103A900030BD01BEEAE7607900F056FB0546002222
:103AA0001146607900F0B6FC144B33F91500FFF7AE
:103AB00071FE94F8B43013B11E232371E4E7172389
:103AC0008DF80430607900F03FFB8DF80500A37994
:103AD0008DF8063001A8FFF73BFEEDE7E01D01F091
:103AE00023FC04F1080001F01FFC237D002BCED045
:103AF00004F10C00FFF7A9FAC9E700BF70DD001060
:103B0000F8B50D4616461F460446C8B1002184F894
:103B1000B410B822204607F06FF93B4632462946DA
:103B20002046FFF749FE054628B906492046FFF71B
:103B300001FF054610B12046FFF794FF2846F8BD67
:103B400001BEE3E75CDD0010F0B587B00C46074628
:103B500058B364B33E4656F8180B314602F0CEFF18
:103B60000DF1040C1D4D0FCDACE80F002B68CCF807
:103B700000302378F3B101238DF80430A3788DF859
:103B8000073023783BB1637A8DF809308DF80A301D
:103B9000237A8DF80830324601A9386802F0D0FE49
:103BA000054648B1284607B0F0BD01BED1E701BEC9
:103BB00001BECFE70223DFE72378626801213846A0
:103BC00000F01CFB28B13A68136843F0004313600F
:103BD000E8E7386802F06CFF014DE3E75CDD0010B8
:103BE0000109020400B585B0024688B191B101AB6C
:103BF00003C983E80300FE218DF80C1000218DF825
:103C00000D1019461046FFF79FFF05B05DF804FB45
:103C100001BEEBE701BEEAE72DE9F04383B00646BB
:103C20000F4615461C46DDF828809DF82C9000F0C4
:103C3000EBFB002837D1F369B3F1805F11D0334635
:103C400053F8180B009343460022394603F0E4F979
:103C500007468FB1B9F1000F1ED1384603B0BDE859
:103C6000F083334653F8180B00934346002239463D
:103C700003F06CF90746ECE7002CEBD0334653F821
:103C8000180B4246297803F09BFA07460028E1D139
:103C9000013CA4B20135EFE7324652F8180B414619
:103CA00003F016FAD9E7014FD7E700BF031A020461
:103CB0002DE9F04782B00646884615461C460A9F05
:103CC0009DF82C9000F0A0FB002842D1F369B3F1DD
:103CD000805F13D0334653F8180B00933B46012204
:103CE000414603F099F98246BAF1000F27D0B9F1A5
:103CF000000F27D1504602B0BDE8F087334653F895
:103D0000180B00933B460122414603F01FF98246FF
:103D1000EAE7334653F8180B00933B462A464146E0
:103D200003F002FA82460028E1D1013CA4B2013539
:103D3000002CDCD0012CECD14FF00108E9E74FF06A
:103D40000008F5E7324652F8180B394603F0C0F97F
:103D5000D0E7DFF804A0CDE7031A020402460023EF
:103D6000184603B1704702B118460133DBB2F8E7D9
:103D700010B50446FFF7F2FF204610BD002001E019
:103D80000130C0B2102805D8044B1B5C002BF7D0C3
:103D900040B270474FF0FF30704700BFE8DB0010C3
:103DA00038B504460D46FFF7E9FF114B1B5D83B1A3
:103DB000104B1A689368B2F874100B44201A103034
:103DC000B2F8762002FB00F000EB8501C858C0B2C3
:103DD00038BD084B1A689368B2F874100B44B2F8F7
:103DE000762002FB04F404EB8501C858EFE700BF1E
:103DF000E8DB0010C02D00082DE9F84304461E46FC
:103E00009DF820809DF82470224B1B5CC3B1411AA1
:103E1000CCB22046FFF7ACFF46EA00262046FFF76B
:103E20009DFF46EA004040F0804040F4805027B1BA
:103E30004246002105F0BEFC23E005F009FD20E02C
:103E40001546FFF795FF4FEA002945EA0025204671
:103E5000FFF784FF45EA004549EA060949EA0049B7
:103E600049F080417FB90C4B19688B68B1F8742018
:103E70001A44B1F8763003FB04F404EB8603002007
:103E80009850BDE8F88343460022284605F03AFCE6
:103E9000F7E700BFE8DB0010C02D00082DE9F04770
:103EA00082B00C469046C0F3470600F00107FFF7CA
:103EB00065FF6A2C45D88146264B1D5D1B57002B9C
:103EC00014DB102D3FD8244B13F804A000242A46FD
:103ED000224B33F81530A3422FD9214B53F825300C
:103EE0001B5DB34208D00134A4B2F0E705F07F05B2
:103EF00055FA80F5EDB2E4E71A4B9B5C0BB1A24595
:103F000023D1B8F1020F07D051462846FFF748FFEA
:103F1000E8B9B8F1000F0ED0B8F1010F14BF0023BB
:103F20000123019300975346E2B25FFA89F12846D4
:103F3000FFF762FF02E0002000E00B4802B0BDE89E
:103F4000F0870948FAE70848F8E70748F6E707481E
:103F5000F4E700BF84D6001018D60010FCDB001078
:103F600014230008E8DB0010010C0204000C02041A
:103F700008B50222FFF792FF08BD000070B582B0BD
:103F80000D468378772B17D8DA08104909688E69AF
:103F900006EBC216C27803F00704009201232A46FA
:103FA0002146304601F080FD0A2D09D00B2D0AD1A3
:103FB0000123A340736006E0044A12689669E9E7AA
:103FC0000123A340B360002002B070BDC02D0008E3
:103FD00010B582B00146772810D8C308094A126884
:103FE000906900EBC310002400940123082201F023
:103FF000070101F059FD204602B010BD014B1B68BE
:104000009869F0E7C02D000800B583B0ADF8000056
:1040100001911146684604F093FE03B05DF804FB7D
:1040200010B50346064850F82300064C54F82330D8
:1040300010B11BB1984710BD0120FCE70120FAE741
:10404000EC2C0008B82C00082DE9F04385B005469B
:104050000F4606781C4850F8041B039101AC03C8B6
:1040600084E803006AB306F0030691462BBB4FF0C9
:104070000008404605B0BDE8F08301AA494628463D
:10408000FEF7B5FF80460028F3D02846FEF7DDFF97
:104090000134E4B2032CECD804F110036B4413F8A0
:1040A000042CB242F4D3E8D901233946284601F062
:1040B00039FA80460028EBD1DFE70024DFF80C80D6
:1040C000E8E7DFF80880D4E7D4DD0010002302041D
:1040D0002DE9F04105468846084601F0BFF906463D
:1040E0000024012718E0022229463046FFF798FFF6
:1040F0000136F6B2B442F6D8B8F1020F1BD0B8F1CF
:10410000080F18D0B8F1010F18D1BFB10D4B012223
:104110001A7013E00134E4B20C2CEDD83246294673
:104120002046FFF77DFF07460028F3D1B8F1010FC5
:10413000F0D10026DEE7034B00221A703846BDE8B6
:10414000F08100BFB42C0008024600200C2806D8DD
:10415000044B1B5C934203D00130C0B2F6E7FF2052
:10416000704700BFC0DD001008B5123820282AD8DB
:10417000DFE800F01F2929292929292929292929A6
:10418000292929292929292929112E131517191B0C
:104190001D2123252700002017E0022015E0032021
:1041A00013E0042011E005200FE006200DE00720B9
:1041B0000BE0082009E0092007E00A2005E00B20B9
:1041C00003E00C2001E001BEFF20FFF7BDFF08BDAA
:1041D0000120FAE708B5EFF30580103800B240F28D
:1041E000FF33984205D0FFF7BFFF034B53F8200081
:1041F00008BD0020FCE700BFEC2C00082DE9F04FC3
:1042000083B0044615461E46E1B1D0F800B090F8E0
:1042100005A000F10C08077D002D6ED03B4B9D42A0
:1042200018D82EB3DFF8F0903B464A46211D404691
:10423000FFF70AFF019000285ED1B9F1000F23D1EA
:104240004D465AE0D0F800B090F805A000F10C08F7
:10425000077DE1E72E4B9D4203D866B1DFF8BC90A5
:10426000E2E72C4B9D4209D85EB1DFF8B490DBE762
:10427000DFF8B090D8E7DFF8B090D5E74FF000094D
:10428000D2E7DFF8A890CFE7217B627B01F0030142
:10429000504603F053FD044698BB5FB9019B93BBA6
:1042A00006B34046FEF786FE0146584602F0C0FCC3
:1042B000054622E0002211464046FEF764FE07460E
:1042C00008B1254619E0002249464046FEF78FFE18
:1042D00008B13D4611E0002201214046FEF753FEA1
:1042E0000190DBE74046FEF765FE02462946584648
:1042F00002F0E0FC054600E00025284603B0BDE8DA
:10430000F08F019DF9E72546F7E700BFA086010081
:10431000801A060040420F0000127A0020BCBE0046
:1043200080F0FA0280841E0020B38100002D31014C
:104330002DE9F04383B080460E4617469946002487
:104340000DE017238DF80430735C8DF805306B7821
:104350008DF8063001A8FFF7D3F9E0B10134BC4273
:104360001DD2A10006EB840595F802C0C445F5D125
:10437000B9F1000FE5D099F80030172BE1D199F889
:10438000012016F824309A42E8D199F802206B787F
:104390009A42E3D104E001A8FFF7DAF900E0002532
:1043A000284603B0BDE8F0832DE9F04383B0804692
:1043B0000E4617460024A14600E00134BC421FD23D
:1043C00006EB8405AB784345F7D116F82400FFF7D8
:1043D000BBFE17238DF804308DF805006B788DF83F
:1043E000063001A8FFF78CF90028E6D101A8FFF7F5
:1043F000AFF916F824200123934049EA0309DCE7CA
:10440000484603B0BDE8F083014B1878704700BF01
:10441000B42C000838B50C461546FFF795FE134B33
:1044200043F82040124B43F8205000231A4601E085
:104430000133DBB20C2B09D80C4850F823000028BC
:10444000F6D0012A08D00132D2B2F1E72AB904B17C
:1044500001BE084800F074F938BD012AFCD1002CD7
:10446000FAD0044800F060F9F6E700BFEC2C000831
:10447000B82C00089C2300082DE9F041044688462A
:1044800016461F4604E0012388F80030E3B1E468D3
:1044900040F28975AC4217D02568002DF7D094F80A
:1044A00004C036EA0C0CF2D1637937EA0303EED08C
:1044B000A26839463046A8470028E4D1012F01D030
:1044C0000123E1E70023DFE72046BDE8F08170B576
:1044D00004460D46164600E0E468AC4210D023685E
:1044E000002BF9D094F804C036EA0C0CF4D16279B0
:1044F00012F0020FF0D1A268022130469847EBE794
:1045000070BD38B505460C46FEF757FBE36813B19E
:10451000FEF757FB38BD2B68E3602C60F8E738B531
:1045200004460D46FEF749FB01E003F10C04236845
:1045300040F28972934205D0AB42F6D1EB6823601A
:104540000023EB60FEF73DFB38BD00002DE9F04194
:1045500082B00D4600F08EFF044601238DF807302F
:10456000102820D81D4BC34013F0010F1BD01C4B4B
:104570001F681C4B1E6823462A460DF1070138466A
:10458000FFF77AFF80469DF807308BB930469DF8DB
:1045900007300BB9012C13D09DF80730DBB1002098
:1045A00002B0BDE8F0810E4B1E680E4B1F68E2E7BB
:1045B00023462A460DF107013046FFF75DFFE6E787
:1045C0002A4601463046FFF782FF2A4641463846D2
:1045D000FFF77DFFE0E70448E2E700BF04010100C8
:1045E000AC230008B0230008FF00420038B50C4699
:1045F00020212046FFF7AAFF0546042C01D02846BB
:1046000038BD002004F0FCFA034BA3FB0031890CF9
:10461000012004F059FCF2E783DE1B4338B50C4659
:1046200010212046FFF792FF0546082C01D02846AE
:1046300038BD002004F0E4FA034BA3FB0031890CE1
:10464000002004F041FCF2E783DE1B4308B5084676
:104650000821FFF77BFF08BD10B50446FFF776FF82
:10466000042C02D0082C17D010BD4FF0E0231B699A
:1046700013F0010F04D00E4B1B7813B1012300E09F
:1046800000230C4A1370002BEED04FF0E022136988
:1046900023F001031361E7E7064B1B78002BE3D0FF
:1046A0004FF0E022136943F001031361DCE700BF20
:1046B000B42D0008B52D000808B50846012902D11F
:1046C000044B1B881BB90221FFF7C6FF08BD024837
:1046D000FCE700BFB62D0008FF00420008B5084601
:1046E0000121FFF7B9FF08BD38B584468E4615464F
:1046F0000C4C0FCCCCF80000CCF80410CCF80820FF
:10470000CCF80C3007CCCCF81000CCF81410CCF856
:104710001820CCF800508CF804E0604604F068FDE6
:1047200038BD00BFE0DD001008B5014618B10348F0
:10473000FFF7E7FE08BD01BEF9E700BFAC230008A4
:1047400008B5014618B10348FFF7E9FE08BD01BEF0
:10475000F9E700BFAC23000808B504F033FF38B90F
:10476000164A00211648FFF7BFFF20B9154808BDBB
:1047700004F088FDF4E7144A01211448FFF7B4FF60
:1047800008B91048F3E7124A02211248FFF7ACFFBC
:1047900008B90C48EBE7104A03211048FFF7A4FFC3
:1047A00008B90848E3E70E4A04210E48FFF79CFFCA
:1047B00008B10020DBE70348D9E700BFDD46001061
:1047C000902D0008011A0204B9460010742D00084B
:1047D0004D460010582D00081D460010202D0008E1
:1047E000ED4500103C2D000808B504F0CDFA00207E
:1047F00008BD0000024600B101BE024B43F8221082
:10480000704700BFB82D0008002807DB00F01F022A
:10481000400901239340024A42F82030704700BF0C
:1048200000E100E000280CDB00F01F02400901233A
:1048300093402030034A42F82030BFF34F8FBFF33C
:104840006F8F704700E100E010B5072900D901BE65
:104850001F2A00D901BE154B1B689C69001BC009AB
:104860005B694FEA001C03EB001003290FD853F8D3
:104870000C00C9004FF01F0E0EFA01FE20EA0E00D8
:1048800002F01F028A40024343F80C2010BD043995
:104890004368C9004FF01F0C0CFA01FC23EA0C031B
:1048A00002F01F028A401A434260EFE7C02D000861
:1048B000072900D901BE0C4B1B689A69801AC009F0
:1048C0005B69020103EB0010032905D89858C90061
:1048D000C84000F01F00704704394068C900C84054
:1048E00000F01F00704700BFC02D0008012803D052
:1048F000022803D103207047022070470020704730
:104900000138032809D8DFE800F0020B0406022072
:104910007047062070470820704701BE022070478C
:1049200004207047814206D9091A642303FB01F170
:10493000B1FBF0F07047411A642303FB01F1B1FBB6
:10494000F0F070472DE9F04F87B005460E46174648
:1049500098469DF840901E23037100234373FF2364
:10496000C371037243728372994222D0FF2F27D002
:10497000FF2E02D1FF2F00F00281FEF71EF90190F9
:10498000804BD3F800A0FF2E1FD1FF2F25D1B8F107
:10499000FF0F2AD1B9F1FF0F2FD1BAF1000F34D098
:1049A00000242AFA04F313F0010F33D10134E4B2E6
:1049B000F7E79945DAD0744C204607B0BDE8F08F90
:1049C000B8F1FF0FD4D0704CF6E713226F49304690
:1049D000FFF7EAFC0AEA000AD7E713226C493846D7
:1049E000FFF7E2FC0AEA000AD1E7122269494046D1
:1049F000FFF7DAFC0AEA000ACCE7122266494846C9
:104A0000FFF7D2FC0AEA000AC7E70198FEF7D9F8D7
:104A10005D4CD1E717238DF814308DF81540002335
:104A20008DF816300DF1140B5B46132257493046B2
:104A3000FFF77EFC82465B46132255493846FFF756
:104A400077FC02905B46122252494046FFF770FC09
:104A500003905B46122250494846FFF769FC8346A3
:104A6000FF2E02D0BAF1000F0ED0FF2F01D0029B13
:104A700053B1B8F1FF0F01D0039B2BB1B9F1FF0F78
:104A800003D0BBF1000F00D101BE17238DF8103009
:104A90002046FFF759FB8DF8110000238DF81230E6
:104AA00004A8FEF72DFE04460198FEF78AF8002CB4
:104AB00082D1059BAB801B0CAB71FF2E3ED1FF2F2B
:104AC00046D1002C7FF478AF039B5BB108211846D8
:104AD00000F068FC044600287FF46EAF0123EB72FF
:104AE00085F80980002C7FF467AFBBF1000F0BD075
:104AF0000621584600F056FC044600287FF45CAFBF
:104B000001232B7385F80A90002C7FF455AF119B7D
:104B100043B300236B7305F11003119A92E803006D
:104B200083E80300002C7FF447AF297C6A7C01F006
:104B30000301687903F002F904463DE70621504677
:104B400000F030FC044600287FF436AF2E72B6E742
:104B50000821029800F026FC044600287FF42CAFC0
:104B6000EF71B1E701231A46291D05F1100000F08D
:104B7000D9FC0446B0FA80F35B096B73D2E7024CB0
:104B80001AE700BFD0DD0010001F020448D4001057
:104B900094D4001028D50010E0D4001070B504465D
:104BA0004079FFF7D1FA0546154B53F8200021460E
:104BB00041F8540B04F1180202F0DAFC064608B181
:104BC000304670BD0023C4F89C30C4F8A030C4F84F
:104BD00094300C4B33F915500B4A03212846FFF74C
:104BE00013FA2846FFF710FE084A21466079FFF7BE
:104BF00011FC2268136843F000431360E0E700BF34
:104C00008CDD001070DD0010114C0010FD4E001006
:104C1000F8B5314D2E68FFF7DDFA2860002859D02D
:104C20000446014651F8180BD0F88C5FD0F8CC7FC1
:104C300002F0DBFE15F0200F09D023682022C3F814
:104C4000802FD3F8803FE36C0BB11046984715F0E6
:104C5000400F09D023684022C3F8802FD3F8803F4B
:104C6000E36C0BB12020984715F0010F04D0E36CE2
:104C700013B14FF48070984715F4007F13D0236868
:104C80004FF40072C3F8802FD3F8803F2268D2F827
:104C9000883F43F4007123F4EE6323F0030303B170
:104CA00001BEC2F8881F17F0400F09D023684022C8
:104CB000C3F8C02FD3F8C03FE36C0BB11020984766
:104CC00017F0010F04D0E36C13B14FF40070984754
:104CD000014B1E60F8BD00BFBC2D000838B50C4666
:104CE000154603F09DFF05FB04F4B0FBF4F038BD5E
:104CF0002DE9F84380460E460824FF27A14601E02F
:104D00000134E4B2102C15D806FB04F503F088FF3B
:104D100000EB55012246B1FBF5F14046FFF7DEFFFF
:104D200001463046FFF7FEFDC0B28742E8D907468C
:104D3000A146E5E74846BDE8F883000010B582B01B
:104D40000446E8B1206840B104F1180102F0C2FD48
:104D5000206802F09BFD0023236023791E2B11D1D4
:104D600094F8A43083B394F8AC303BB994F8B030E5
:104D70001E2B40D194F82C311E2B44D102B010BD13
:104D800001BEDFE76079FFF7DFF9234B33F910004D
:104D9000FFF748FD002211466079FFF73BFB94F8CE
:104DA000A43013B11E232371DAE717238DF80430E2
:104DB0006079FFF7C9F98DF80500A3798DF8063001
:104DC00001A8FEF7C5FCEDE7E01D00F0ADFA04F127
:104DD000080000F0A9FA04F10A0000F0A5FA04F1B5
:104DE000090000F0A1FA637B002BBCD004F1100095
:104DF000FEF72BF9B7E704F1B000FEF778F91E23B0
:104E000084F8B030B6E704F59670FEF770F91E230B
:104E100084F82C31B2E700BF70DD00102DE9F047B7
:104E200004460D461646D0F8A8308B4201D0C4F88F
:104E3000A810637B13B93048BDE8F08727460021EE
:104E400057F8100B02F046FD002211463846FEF7D7
:104E50009AF828B12268136843F000431360EBE727
:104E600004F1040929464846FFF742FF8046A06541
:104E700005FB00F503F0D4FE00EB5500B0FBF5F5A3
:104E800029463846FEF7CAF8824638BB42462946CC
:104E90004846FFF723FF06B1306000220121384663
:104EA000FEF771F894F8703023B34FF48033E26D5D
:104EB000082A01D84FF4006A43EA0A0308F1FF38D0
:104EC00008F00F0843EA0803226843F000731360F8
:104ED0002268136843F000431360ADE7002201210C
:104EE0003846FEF750F82268136843F00043136019
:104EF0005046A1E75346DAE7061F02042DE9F047C2
:104F000004461546037AFF2B0DD0DA08772B05D817
:104F10009C480068806900EBC21806E0994A126854
:104F2000D2F8188001E04FF00008A27AFF2A0ED0D4
:104F3000207B18B3D008772A05D8924E3668B76917
:104F400007EBC01704E08F480068876900E000277E
:104F500003F0070602F00709102911D020290FD00D
:104F6000013D072D00F2F580DFE815F07600DB004B
:104F7000F300FA00F300F300F300DB000027E7E79B
:104F8000012D08D04FF0000A082D3ED0042D4FD03F
:104F90005046BDE8F087264656F8180B314602F019
:104FA00022FD10F0010F02D04FF0000AECE731466D
:104FB000206802F016FDD4F8B431B3FA83FA4FEA50
:104FC0005A1A2AEA000AD4F8B031002B14BF4FF065
:104FD000000A0AF0010ABAF1000FD5D02168D1F811
:104FE0000832C3F30803D1F80822C2F3C032D34217
:104FF00008D1D1F80833C3F30803002BC4D04FF015
:10500000000AC1E74FF0000ABEE70022D4F8A8105A
:105010002046FFF703FF47B194F8992049463846E8
:10502000FFF712FC4FF0010AB0E74FF0010AADE7BD
:10503000002F00F0928049463846FFF739FC84F88B
:1050400099004FF0010A0AFA09F3BB6000224946B1
:105050003846FFF7F9FB9BE7254655F8180B29461C
:1050600002F0C1FC10F0010F02D04FF0000A8FE7F0
:105070002946206802F0B5FCD4F8B431B3FA83FABB
:105080004FEA5A1A2AEA000AD4F8B031002B14BFAA
:105090004FF0000A0AF0010ABAF1000F3FF478AFAE
:1050A0002368D3F88C0FD3F8CCCFD3F80822C2F3FF
:1050B0000802D3F80812C1F3C031CA4253D1D3F861
:1050C0000833C3F30803002B50D1002851D1BCF1A1
:1050D000000F51D1B8F1000F0ED031464046FFF716
:1050E000E7FB84F898000123B340C8F80830002299
:1050F00031464046FFF7A8FB77B149463846FFF7EF
:10510000D7FB84F89900012303FA09F3BB6000225E
:1051100049463846FFF798FB2946206802F0DAFB3B
:1051200036E72268136843F000431360B8F1000FBC
:1051300005D094F8982031464046FFF785FBF7B13B
:1051400094F8992049463846FFF77EFB4FF0010A54
:105150001EE701BE4FF0000A1AE74FF0010A17E7F9
:105160004FF0010A14E74FF0000A11E74FF0000A70
:105170000EE74FF0000A0BE74FF0000A08E74FF088
:10518000010A05E7C02D0008F8B506460F4615468A
:10519000FFF73AF9A8B93368D3F840332C4602E058
:1051A0003368D3F84033B3F1FF3F07D1002DF7D078
:1051B0004CB10120FFF718FB013CF1E73B700020E8
:1051C000F8BD0248FCE70248FAE700BF031A0204F0
:1051D000021F020438B504460D46FFF715F928B141
:1051E000044806E02946206800F051FF0028F9D065
:1051F000002038BD031A020408B5034628B131B1B6
:1052000093F8AC0028B9064808BD01BEF7E701BE17
:10521000F6E753F8180B02F069FB0020F4E700BF33
:10522000041F02042DE9F04182B00C4616461F46C9
:10523000DDF828800546002867D04FF4DE72002193
:10524000284605F0D9FD012385F8AC301E2385F8EA
:10525000B03085F82C314FF4E133C5F8A830099B04
:1052600001939DF8203000933B4632462146284664
:10527000FFF768FB044600283FD105F1540C294C88
:105280000FCCACE80F000FCCACE80F000FCCACE8B3
:105290000F0094E80F008CE80F00EB7A85F874306B
:1052A000B8F1000F0ED0D8F80030EB6598F8040084
:1052B000FFF726FB85F8610098F80800FFF716FB5A
:1052C00085F862002846FFF769FC0446B0B9B8F1DA
:1052D000000F07D0D8F80C1021B1D8F810202846BC
:1052E000FFF78AFF6B7B93B92B681B6813F4006F81
:1052F00015D080235B08C5F8B83114B12846FFF7F4
:105300001DFD204602B0BDE8F08101BE95E70022F8
:10531000D5F8A8102846FFF781FD0446E4E74023AE
:10532000E8E700BFFCDD001010B504460078FF2858
:1053300000D110BD00F06AF8FF232370F9E738B5FB
:105340000C46054638B1FDF7B7FD02462146284612
:10535000FDF7B6FD38BD01BEF5E700002DE9F041CF
:10536000064615461F460024A0460C4B08E04FF0A9
:1053700001083046FFF7E3FF034658B157B1013447
:10538000032C07D80649095DA942F0D0B8F1000FF7
:10539000F5D0EEE71846BDE8F08100BF020D02042B
:1053A0003CDE001070B584B004460D4683780B22B5
:1053B0008DF80020DA088DF8012003F007038DF83E
:1053C0000230009BADF80C301B0C8DF80E30039BA7
:1053D000ADF808301B0C8DF80A30029BADF8043094
:1053E0001B0C8DF8063001A8FEF78AF9064610B1AD
:1053F000304604B070BD29462046FEF7BFFD064684
:105400000028F5D001A8FEF7A3F9F1E710B584B0A4
:105410000446FEF7DDFD00B101BE0B238DF8003020
:10542000E3088DF8013004F007048DF80240009B7A
:10543000ADF80C301B0C8DF80E30039BADF8083026
:105440001B0C8DF80A30029BADF804301B0C8DF854
:10545000063001A8FEF77CF904B010BD431E072BEF
:1054600005D8DFE803F0060604060404040601BEBE
:1054700001207047431E072B05D8DFE803F006061E
:1054800004060404040601BE0120704738B5012853
:1054900004D0022809D008BB881A38BD8A1A114BDB
:1054A00003FB02F292FBF1F0F7E700238A1A63EBA9
:1054B000030E90184EEB0E0C80184EEB0C0C4FEABE
:1054C0004C1444EAD064450140194CEB040C80189C
:1054D0000A464EEB0C0104F049FCDEE701BE002059
:1054E000DBE700BF40420F00122817D8DFE800F0CA
:1054F0000A180C0E16161616161616161612161072
:1055000016161400082070470420704701207047C9
:105510000220704706207047062070470120704720
:105520001020704700B583B086468C4699B19CF830
:105530000010053918293DD8DFE801F0393C3C3C22
:105540003C3C3C0F3C3C3C3C3C3C3C0F1A3C3C282B
:105550003C3C3C3C210001BEE9E71A4B93E80300C8
:1055600002AB03E9030069467046FDF7D5FC25E070
:10557000154B93E8030002AB03E90300F3E7134B79
:1055800093E8030002AB03E90300ECE79CF8013069
:1055900033B90F4B93E8030002AB03E90300E2E7E2
:1055A000094B93E8030002AB03E90300DBE701BE0C
:1055B000084803E000217046FFF7D0FE03B05DF815
:1055C00004FB00BF28DC001030DC001038DC0010C9
:1055D00040DC001002020204014B1860704700BF5B
:1055E000C02D0008034638B100221A605A609A6044
:1055F000DA601A615A61704701BEF5E730B41E4B9C
:1056000098422FD01D4B1B6893F83A308B428CBFC9
:105610000023012303B101BE184D2B68B3F86220AB
:105620000244B3F8643001FB03F30024D4502B6828
:10563000B3F862200244B3F8645001FB0522946081
:10564000B3F862200244B3F8645001FB0522D46031
:10565000B3F862201044B3F8643001FB03018C619D
:1056600030BC7047054B1B6893F839308B428CBFB8
:1056700000230123CEE700BF00002840C02D000812
:105680000023036043608360C360036143618361FF
:10569000C3617047032900D901BE01F11002120253
:1056A0000023835000EB012000F58152136041F28A
:1056B0008802835070470000074B1B6893F837300F
:1056C000834200D801BE044B1B681A6AB3F8BE308F
:1056D00000FB0320704700BFC02D0008B0F1204F31
:1056E0003AD017D8802839D00DD8102838D0402883
:1056F00001D124487047002834D170474FF4A400EA
:10570000704721487047B0F5807F2FD01F4B9842DB
:105710002ED170471E4B98422CD02ED31D4B984251
:105720002DD8B0F1704F11D900F180500138042804
:10573000E7D801A353F820F0FD56001003570010DE
:105740006957001051570010555700100E48704708
:105750001148704711487047002070471048704743
:1057600010487047084870470F487047074870470F
:10577000054870474FF4A00070470348704702483F
:10578000704700BF02005000FF00520006005200A8
:10579000090000A0050000F00200520003005200C2
:1057A00005005200010050000100520010B5012018
:1057B000FFF782FF0A4B1C68D4F8C030C358002B97
:1057C0000BDB084B1868FFF789FF636801229A60BA
:1057D00063689B68002BFBD110BD0348FCE700BF4A
:1057E000C02D0008D42D00080200500010B5072974
:1057F00000D901BE1F2A00D901BE154B1B689C6948
:10580000001BC0095B694FEA001C03EB0010032971
:105810000FD853F80C00C9004FF01F0E0EFA01FE0E
:1058200020EA0E0002F01F028A40024343F80C20D7
:1058300010BD04394368C9004FF01F0C0CFA01FC7D
:1058400023EA0C0302F01F028A401A434260EFE78A
:10585000C02D0008072900D901BE012A04D901BEC4
:1058600001238B4083607047002AF9D101238B40CC
:105870004360704700B5072900D901BE0F2A03D83D
:10588000012A01D0092A00D101BE8900094B1B68F9
:1058900093F885E050F80E304FF00F0C0CFA01FC35
:1058A00023EA0C0302F00F028A401A4340F80E204C
:1058B0005DF804FBC02D000800B5072900D901BE22
:1058C000012A00D901BE0A4B1B6893F886E050F804
:1058D0000E304FF0010C0CFA01FC23EA0C0302F02D
:1058E00001028A401A4340F80E205DF804FB00BF15
:1058F000C02D0008082900D901BE012A00D901BE27
:1059000083694FF0010C0CFA01FC23EA0C0302F04E
:1059100001028A401A4382617047000000B50829DD
:1059200000D901BE032A00D901BE4900094B1B68FA
:1059300093F884E050F80E304FF0030C0CFA01FCA1
:1059400023EA0C0302F003028A401A4340F80E20B7
:105950005DF804FBC02D0008002800F09D80F8B51C
:105960000D4614460646002A00F09880072900D903
:1059700001BE2368012B00D901BE63680F2B03D839
:10598000012B01D0092B00D101BE237A1F2B00D996
:1059900001BEE368032B00D901BE2369012B00D9A6
:1059A00001BE6369012B00D901BE236A012B00D916
:1059B00001BE636A012B00D901BEA36A012B00D985
:1059C00001BEE36A032B00D901BE236B072B00D96C
:1059D00001BEE369032B00D901BEA369012B00D9E5
:1059E00001BE0123AB406800103003228240134304
:1059F0002B4F3A6892F88710725822EA0302A36983
:105A000003F00103AB401343E26902F0030282405A
:105A100013437350227A29463046FFF7E7FE626847
:105A200029463046FFF726FFE26829463046FFF751
:105A300075FF226929463046FFF75CFF62692946F7
:105A40003046FFF739FF3B6893F88810705820F014
:105A5000FF00236A03F00103626A520002F00202AF
:105A60001343A26A920002F004021343E26AD200D6
:105A700002F018021343226B5201D2B21343AA0060
:105A800002F47E72934003437350226829463046E5
:105A9000FFF7E0FE0020F8BD024870470148FAE732
:105AA000C02D000801005A00F8B507460D461446FF
:105AB0001E469DF81820072900D901BE0F2C03D8D7
:105AC000012C01D0092C00D101BE012E00D901BE4C
:105AD0001F2A00D901BE29463846FFF787FE3B68DA
:105AE0000122AA4023EA020306F00106AE401E434B
:105AF0003E60084B1B6893F885107B58AD000F2261
:105B0000AA4023EA020304F00F04AC401C437C507B
:105B1000F8BD00BFC02D0008084B1B68D3F8C0308B
:105B2000C358002B07DAB1F5803F00D301BE89B21C
:105B30004160002070470248704700BFC02D000838
:105B400001008A000368002B08DAC260B1F5803FCB
:105B500000D301BE89B281600020704700487047C1
:105B600001008A000A4651B1074B1B68D3F8C030C8
:105B7000C358002B05DAC36813600020704701BECC
:105B8000F2E70248704700BFC02D000801008A00FC
:105B9000002807DB00F01F02400901239340024A5E
:105BA00042F82030704700BF00E100E0074B1B685F
:105BB00093F83730834200D801BE044B1B681A6A41
:105BC000B3F8BE3000FB0320704700BFC02D0008B3
:105BD000034B1B6803B17047014B1860FBE700BF24
:105BE000E82D0008F8B50D461646069F1D4A1268B6
:105BF000002A34D01B4A11682C2200FB02F28C18B8
:105C0000D8B28850C3F3072262601B0CA360FFF771
:105C1000CDFF20616268144B1B6893F838309A42BC
:105C200000D301BE104B1B681B6A803203EB42138A
:105C30006361A268B2F5803F00D301BEB2F5803F38
:105C400000D301BE91B241EA02429A60E661256248
:105C50000023A36117B1B7F90030A381F8BD01BEDD
:105C6000C8E700BFE82D0008C02D000830B58FB090
:105C70000023ADF830300D93044600283FD0A369CF
:105C8000072B00D901BEE36A002B3AD0236B002B0F
:105C900039D00DF11C0C04F1140EBEE80F00ACE875
:105CA0000F00DEF80030CCF800300DF1080CA646ED
:105CB000BEE80F00ACE80F00DEF80030CCF8003092
:105CC000079B1733ADF83030089B0D930CAD009552
:105CD0000B9BA26AE16A0A98FFF784FF00210091FA
:105CE000069B0A460598FFF77DFF216B284603F0C7
:105CF00027F8BDF93000FFF74BFF0FB030BD01BEF4
:105D0000BDE701BEC2E701BEC3E7000070B515469E
:105D1000002A3BD0224A1268002A39D0204A126851
:105D20002C2404FB002C04FB01214A681D48006858
:105D300090F838E0B2FBFEF00EFB1022012000FAD2
:105D400002F21204DCF80440B4FBFEF60EFB16442B
:105D500000FA04FEDCF81040E4B18869E0B9246878
:105D6000002C1BDA2C882C6014432C60DCF81020EB
:105D7000D56001228A614B62DCF81020BEF5803FBD
:105D800000D301BE1FFA8EF3936070BD01BEC1E760
:105D900001BEC3E70448F8E70448F6E70348F4E720
:105DA000E82D0008C02D000804028A0007028A00BE
:105DB00070B582B000230193044628B323692BB346
:105DC00063692BB3236A2BB36369DD682A0C0BD09C
:105DD0002A0C12041A601B6820691D4B1B68D3F83B
:105DE000C030C358002B17DBADB24DB163691D60E5
:105DF0001B68636A3BB39847002363620023A36177
:105E000063691B6802B070BD01BED7E701BED7E76A
:105E100001BED7E701BED7E701A9FFF7A3FE60B92E
:105E2000019803681E0CDBB2E2699A4206D9226A25
:105E300052F8233013B1984700E00026314620691C
:105E4000FFF76AFED0E7A36A002BD7D09847D5E7C3
:105E5000C02D000808B5064B1B683BB1044B1B68FE
:105E60002C2202FB0030FFF7A3FF08BD01BEF5E7BF
:105E7000E82D0008074B1B6893F83730834200D8A1
:105E800001BE044B1B681A6AB3F8BE3000FB032046
:105E9000704700BFC02D000838B51A4B1B6893F837
:105EA0003730834229D90D4649B30C6814F01F04DA
:105EB00001D0154822E0FFF7DDFF144B186004E025
:105EC0006B68002243F8242001342B68B4EB531F85
:105ED000F6D30021FFF720FE2A4600210B4B18685D
:105EE000FFF730FE08B10A4808E00021074B1868A8
:105EF000FFF712FE10B1064800E0034838BD024823
:105F0000FCE700BFC02D000803018A00EC2D00084B
:105F100001018A0010B50C4612B151B9084810BDF4
:105F200009B10748FBE7FFF7A5FF064B18602046BD
:105F3000F5E705490C604A60FFF7AEFFEFE700BFE9
:105F400003018A00EC2D0008F82800082DE9F04133
:105F50001B4B1B687BB30C46DB681A6882422CD94A
:105F6000450900F01F00012202FA00F6D3F8048070
:105F700079B10027124B18680368002B15DA58F81E
:105F80002530334209D023EA060348F8253000259E
:105F900004E0FCF712FE0746ECE70A4D0021FFF78C
:105FA000BBFD24B12846BDE8F081074DF9E738462E
:105FB000FCF707FEF6E7034DF4E7044DF2E700BFF8
:105FC000EC2D0008020188000301880004018A000A
:105FD0000C4B1B687BB1DB681A6882420DD9410902
:105FE00000F01F00012282405B6853F82130134209
:105FF00005D0054870470548704705487047054873
:10600000704700BFEC2D00080101880002018800E4
:1060100004018A0000018800084B1B68DB6CC34048
:1060200013F0010F00D101BE044B1B681B69103037
:106030008002185800F00F00704700BFC02D000804
:1060400010B4D0F8003313F0080305D000230DE09E
:10605000D0F84043CC5401339342F9D35DF8044B5C
:106060007047D0F8404321F8134001339342F8D3EE
:10607000F4E710B51446D0F80833C3F308039A4286
:1060800000D31C462246FFF7DBFF204610BD036805
:1060900013F4006F0AD08022D0F80832C3F308034B
:1060A000934205D0C0F84012012070474022F3E728
:1060B0000020704710B4D0F8003213F0080305D068
:1060C00000230DE0CC5CC0F8404201339342F9D389
:1060D0005DF8044B704731F81340C0F8404201337B
:1060E0009342F8D3F4E710B51446036813F4006F35
:1060F0000DD08023D0F80822C2F308029B1AA342D5
:1061000000D81C462246FFF7D5FF204610BD40238D
:10611000F0E702E0C0F84012013A002AFAD17047D5
:1061200010B51446036813F4006F0DD08023D0F827
:106130000822C2F308029B1AA34200D81C4622463A
:10614000FFF7E7FF204610BD4023F0E7036813F494
:10615000006F0CD08023994200D301BED0F80433E5
:1061600023F0FF03C9B20B43C0F804337047402348
:10617000F1E7CB1F092B00D901BE036E23F0F0031A
:1061800001390901C9B20B430366704770B5044673
:106190000D468B6C002B46D0006810F4803005D083
:1061A000D4F84C0F10F0400000D00220226E12F400
:1061B000006F07D1D4F84C2F12F0800F02D040F0BE
:1061C000010000E088B398470123C4F8C03FD4F829
:1061D000C03FD4F8043243F48033C4F80432D4F816
:1061E000043223F48033C4F80432D4F80432F0B912
:1061F0000123E366666E06F010066B6C13B1CEB138
:1062000001209847C6B141F202036B602B6A43F04C
:1062100001032B626B6B2B63002385F82430012371
:10622000C4F8883F05E00020D3E70020D1E702232F
:10623000E36670BD0220E4E741F201036B602B6A64
:1062400043F010032B620123C4F8C83F2B78B3B18D
:10625000EE6BA6B1236E43F400532366EE6B802EE3
:1062600005D9A6F18003802B0ED8813E07E0013EC0
:10627000236E43F4004323660023C4F8C83F31462D
:106280002046FFF763FFD4E73F26F8E710B5034643
:10629000486841F2010290423CD0D3F80802C0F3B2
:1062A0000800D3F80822C2F3C0320244086B801AF7
:1062B0004863086A10F0080F05D1C86A1044C86224
:1062C000886A801A88620A6A42F004020A620A6ACC
:1062D00022F001020A620022C3F8882F1020D3F8AE
:1062E0004C4F40F2011214420DD01A6822F00042C5
:1062F0001A6000229A66DA661A6842F000421A6052
:106300001B6840F040004FF080534B604B6C03B172
:10631000984710BDD3F80823C2F30802C2B1D3F8DE
:106320004C2F12F0C00F13D10A6A42F040020A62E9
:106330000A781AB3D3F8042342F48032C3F8042352
:10634000D3F8042322F48032C3F80423D3F80423BF
:106350000A6A42F020020A620A6A22F010020A6205
:106360001A6E22F420421A660022C3F8C82F0122B6
:10637000C3F8C02FD3F8C02F2020B0E7D3F84023B4
:10638000E6E7D0F80C3F13F0020F17D00222C0F856
:10639000002FD0F8002FD0F8002F12F0040F23D0D8
:1063A0004FF400108A6802438A604A68B2F5B81F49
:1063B00004D00A7BDAB14FF4C0124A6013F4807F34
:1063C00003D08A6842F400028A6013F0010F03D000
:1063D0008A6842F480028A6040F21112134202D0AD
:1063E0004FF4C0134B6070474FF48010DAE74FF45E
:1063F000B012E2E70023C0F8C83FC0F8883F836EC0
:1064000023B140F21713C0F8083F704740F213134E
:10641000C0F8083F182383664FF4B8134B607047E9
:1064200010B5D0F80C2F036E23F48073036600239D
:10643000C0F8C83FC0F8883FC0F8083F40F21713C3
:10644000C0F8003FD0F8003F8B6823F480338B60A6
:106450004B7B53B38B69CB6140F201131A4238D0A6
:10646000036E03F04043B3F1404F2BD0036823F099
