:020000041000EA
:10000000002000081B0100100D0000007D01001001
:1000100000000000000000000000000000000000E0
:100020000000000000000000000000007901001046
:1000300000000000000000007901001079010010AC
:100040007901001079010010790100107901001088
:100050007901001079010010790100107901001078
:100060007901001079010010790100107901001068
:100070007901001079010010790100107901001058
:100080000448054B10B5834203D0044B002B00D02D
:10009000984710BD780300087803000800000000AE
:1000A00006480749091A8B10C90FC91810B549101D
:1000B00003D0044B002B00D0984710BD78030008F4
:1000C000780300080000000010B5074C2378002BCF
:1000D00009D1FFF7D5FF054B002B02D0044800E003
:1000E00000BF0123237010BDB00300080000000012
:1000F00094150010054B10B5002B03D0044905489A
:1001000000E000BFFFF7CCFF10BDC04600000000BC
:10011000B4030008941500107047FFF7FDFF72B696
:100120000F4C104DAC4209DA21686268A368043BA9
:1001300002DBC858D050FAE70C34F3E70A490B4AFF
:100140000020521A02DD043A8850FCDC08480949B4
:100150000860BFF34F8F00F06FF800F01DF8FEE766
:10016000A0150010B8150010B0030008C80500085D
:100170000000000808ED00E0FEE7FEE700B50420FF
:100180007146084202D0EFF3098002E0EFF30880E5
:10019000043000F0BBFDFEE710B562B6034800F086
:1001A000C3F8002000F0BAFEFBE7C04600200010B4
:1001B00010B5002000F090FA10BD704770B5002017
:1001C00000F0EEFC041E28D0144B186000F064FB15
:1001D000411C200000F080FF114B0400186000F06B
:1001E0004DFB411C200000F077FF04000D4B013C4B
:1001F00018600D49200000F06FFFFA210B4D01300F
:1002000028708900200000F067FF094D0130286048
:10021000002000F0C5FC074B186070BD8800000886
:100220008C0000088000000840420F009400000885
:10023000900000088400000810B5204800F0ACF8D9
:10024000B022E02130201E4CD200A35889005B0070
:100250005B08A35063588343635080235B04A3501F
:10026000184B194AE250A02204339201E250FF22B7
:10027000164BE25000F014FFC02201215200A35897
:100280008B43A350FFF799FFFFF798FF104B032014
:100290001A681300BA33198807234B43126A802166
:1002A0009B180022DA605A600A4A00F05FFA0A4896
:1002B00000F022F9094800F05BF910BDD4140010D9
:1002C0000000264084050000010002008C050000AB
:1002D0004C05000878030008CC030008A0140010A7
:1002E0009023034A5B01D058032318407047C0464F
:1002F0000000204010B5902400F047F8074B64013F
:100300001959074A1140074A0A431A5110225968DD
:100310001142FCD000F03DF810BDC0460000204066
:10032000FCFF00000100FA05F8B590260E4C76019E
:10033000070000F02AF8A3590500DB439B0701D111
:10034000FFF7D8FF80239B00E750A259074B1A40C4
:10035000074B1343A351102362681A42FCD02800B4
:1003600000F017F8F8BDC04600002040FCFF000078
:100370000300FA05000000000230800803D00130BD
:100380000238FCD1C046C0467047EFF3108072B609
:10039000704780F310887047014B18607047C04663
:1003A0004C050008044B1B681A00BA3212881B6AFD
:1003B0005043C0187047C0464C050008A02300B544
:1003C0001B06984226D015D8802825D00AD8102898
:1003D00024D0402824D000280BD0154809E0A420C0
:1003E000C00306E08022134B520090421CD098427A
:1003F000F3D100BD104B984218D0104BC018042800
:10040000EBD800F05FFEECEA0F0305000C48F0E7C4
:100410000C48EEE70020ECE70B48EAE70B48E8E77A
:100420000B48E6E70B48E4E71800E2E7A020D7E72F
:10043000FF00520006005200090000A0FFFFFF0F5E
:10044000020052000300520005005200010050005B
:10045000020050000100520010B50020FFF7A2FF7B
:100460000A4B1C682300BC331B68C0180368002BB0
:100470000ADB074B1868FFF7A1FF012263689A6047
:100480009A68002AFCD110BD0248FCE74C05000820
:100490005005000802005000064B1B68BC331B6867
:1004A000C3181B68002B03DA89B241600020704733
:1004B0000148FCE74C05000801008A000368002B96
:1004C00004DA89B2C2608160002070470048FCE70E
:1004D00001008A00064B1B68BC331B68C3181B68ED
:1004E000002B03DAC36800200B6070470148FCE76B
:1004F0004C05000801008A00024B1A68002A00D14E
:100500001860704764050008F0B52C24154E44436C
:1005100030681F000019FF241E0A26402740124C95
:100520001B0C256807602C6A46608360BA352D88ED
:100530006F433F190761370080377F01E7190B4D83
:1005400076014761A4191F043B436419236000230B
:100550008361059BC2610162002B01D01B888381EE
:10056000F0BDC046640500084C05000808100000F6
:10057000F0B50400236987B0026841680393A3685B
:1005800004AD1732C0682B806A80039BA26A059174
:100590000095E16A266A676AFFF7B6FF00213B0013
:1005A0000A0030000091FFF7AFFF2800216B00F038
:1005B00077FB0022AB5E002B06DB1F2213401E3AA6
:1005C0009A401300014A136007B0F0BD00E100E05B
:1005D000F0B585B003931B4B16001C682C235843C1
:1005E0004B4320180769E418002F27D0A569002D78
:1005F00026D13B68002B23DA134B1B6834331B785E
:100600000193436801996068029300F0EBFD0122B9
:100610008A40336812049BB2134333600123FE60A7
:10062000A361039B01996362029800F0DBFD012343
:100630008B409BB2BB60280005B0F0BD034DFAE7CC
:10064000034DF8E7640500084C05000804028A0021
:1006500007028A0073B5002642690400D568019636
:100660002B0CB34221D01B0413601368194B006993
:100670001B68BC331B68C3181B68B34215DA01A999
:10068000FFF728FFB0420CD10198E26903681E0C05
:10069000DBB29A4205D9226A9B009B58002B00D0FE
:1006A000984731002069FFF7F7FEADB2002D09D061
:1006B00063691D6000251B68636AAB4205D09847DB
:1006C0006562A56163691B6873BDA36A002BF8D0DE
:1006D0009847F6E74C0500082C2310B54343034A1E
:1006E0001068C018FFF7B6FF10BDC04664050008CB
:1006F0001A4B70B51A680C00130033331B78834211
:100700002AD9002928D00D681F212B000B400D424B
:1007100022D11100BA310988126A48431900104DDC
:100720008018286022685209934210D30021FFF7F5
:10073000B3FE002122002868FFF7C0FE011E04D18D
:100740002868FFF7A9FE002800D0064870BD62683F
:100750009E00B1500133E5E70348F7E74C05000878
:100760006805000801018A0003018A000B0010B52A
:10077000002A0DD1002914D10B4A0C4C11680A0033
:10078000BA321288096A424352182260180010BD1A
:10079000002906D006490B604A60FFF7A9FF030055
:1007A000F4E7044BF2E7C0464C0500086805000872
:1007B0008803000803018A00F7B51B4F04003B685B
:1007C0000E00002B2BD0DB681A68824229D9002545
:1007D0005B680193A94202D1FFF7D7FD0500386895
:1007E0000368002B19DA1F23012223409A40640971
:1007F000019BA4001C1921680A420CD0914321607E
:1008000000240021FFF748FE002E02D12800FFF748
:10081000C0FD2000FEBD054CF3E7054CF4E7034C9A
:10082000F7E7044CF5E7C0466805000802018800B8
:100830000301880004018A000C4B1B68002B11D0B7
:10084000DB681A6882420FD959681F234209184091
:100850001E3B8340920050581840431E9841044B61
:10086000C01870470348FCE70348FAE7680500082A
:10087000000188000201880004018A00054B1B6802
:100880001A0088321B6812689B181868000AC0B2E8
:100890007047C0464C050008044B1B681A0088329C
:1008A0001B6812689B181868000E70474C050008FA
:1008B000034BE0308000C0588006800F7047C04670
:1008C00000002640024B18694007C00F7047C04621
:1008D00000002740A6220549D2008B580220DB43A6
:1008E0009B0702D00123885818407047000026401B
:1008F00010B5FFF7EFFF0023022801D1014B1B6861
:10090000180010BD70050008084A83009B18D0220B
:100910009200985807221040042806D1C022920065
:100920009B581F22FC30134018437047000026409C
:1009300010B5FFF7E9FF88235B0098421CD00BD865
:10094000012813D0022814D0431E9841104B404276
:100950001840104BC01810BD1223FF33984210D01E
:100960001423FF33984210D00020F4E70A4B186894
:10097000F1E7FFF7BDFFEEE7084A094BD058C00F7B
:1009800001E0FFF79FFFC003E5E7044A054BF5E7E9
:1009900000EE85FF00127A006C050008000026407A
:1009A0000C0500003C050000B023154ADB00D358BD
:1009B00010B59903DB01DB0F890BC371114B01608B
:1009C000D3580F24D904DB01DB0D0381B123DB00F5
:1009D000D358C90C81801900214081721909214026
:1009E000C172D9029B009B0F8373074BC90CD3586C
:1009F00081815A05DB01520FDB0D8271038210BD2C
:100A000000002640840500008C0500008030034B68
:100A1000FF308000C058C00F7047C046000026401D
:100A20000F4B421E1B683F331B78934216D9803010
:100A30007F220C4BFF308000C3581F201A400A70E1
:100A40001A0A02404A701A0C02408A701A01C24007
:100A500000209B009B0FCA700B7170470248FCE797
:100A60004C0500080000264001004A00F0B589B09E
:100A700003AD2800FFF798FFB0230026164ADB00DD
:100A8000D358B34224DAAB7B022B21D0AC88B442DA
:100A90001ED03000ED79039FFFF74AFF220033009C
:100AA00031000190681C00F0C3FB0C00050033000E
:100AB0003A003100019800F0BBFBE6076A083243B8
:100AC0006308801859412A00230000F091FB0600BA
:100AD000300009B0F0BDC04600002640F7B5234BFA
:100AE00006001B683F331B78002B08D000283BD042
:100AF000834204D36946FFF793FF041E01D000260A
:100B000032E03000FFF782FF2300002805D06B465B
:100B10001C79023C23005A1E93416A461778547888
:100B20009578002BEBD0002CE9D0002DE7D03000D9
:100B3000FFF7FEFE002306002A002000190000F047
:100B400077FB00230C0005003A003000190000F08C
:100B50006FFBE6076A0832436308801859412A0090
:100B6000230000F045FB06003000FEBD4C050008E8
:100B700010B5041E04D1FFF779FF002806D008E065
:100B8000064B1B683F331B78834203D22000FFF7DC
:100B9000CFFE10BDFFF7A2FFEFE7C0464C050008EF
:100BA00070B50500FFF784FEE035074BAD0004008B
:100BB000E8580F231840FFF7DBFF0123A3405B0831
:100BC0001818E04070BDC0460000264030B5FF2533
:100BD00003242A000440E400A24089012940D243B2
:100BE000A14083B200280ADBC0240B4B80088000A0
:100BF000C018A400035913400B43035130BD0F200C
:100C00000340083B05489B089B001B18D86902401D
:100C10000A43DA61F2E7C04600E100E000ED00E0DF
:100C2000144B30B51B6807241A002C3212781F2A87
:100C300015D882081500A5432C1E0FD1033420407F
:100C4000A04081401B68920020339B180A00FF21BE
:100C500081401C68624011406140196030BD1A68D3
:100C6000802320401B06034380208001091889004F
:100C70008B50F3E74C050008064B10B59A68064CFC
:100C800010308300A24202D19858995010BD034AF7
:100C9000D058FBE700ED00E0000000080000001065
:100CA000F7B504000E00002801D1144C17E0002312
:100CB000C55E134B4188134F0193002D11DB2800B3
:100CC000FFF7AEFF61682800FFF780FFBB68019A5D
:100CD0000024934203D131002800FFF7CDFF20000C
:100CE000FEBD08B26168FFF771FFBB68019A9342CD
:100CF000DBD131002800FFF7BFFFD6E70100560027
:100D00000000000800ED00E0FEE7000002680A4B6A
:100D100010B51A6042685A6082689A60C268DA60E8
:100D200002691A6142695A6182699A61C269DA612B
:100D3000FFF7EAFF10BDC04690030008B0235B0533
:100D40005A782120002A01D05878C0B27047B023C9
:100D50005B059A89002A02D0988980B2704780206A
:100D60004000FBE7254B73B586000D00F4580429BD
:100D700001D0012925D100200EE0A3682B420AD121
:100D8000E36829001A685B6868460193009223684B
:100D900098471B4B1C606469002C0AD0194B984281
:100DA000EBD1012DE9D1164A174B126815489A511B
:100DB00076BD012DFCD1134B9842F4D0124B9C51BF
:100DC000F6E7022914D026006469002CFBD100202C
:100DD000002EEDD0B3682B4208D1F36829001A68C1
:100DE0005B68684601930092336898473669EFE77D
:100DF000034B1B68181EDBD01E69E8E7B40500082A
:100E0000B0050008FF0042009C0500081A4B1B6853
:100E1000190088311A6809685118096801621900B7
:100E20008C3109685218126842621A0046321278F0
:100E3000002A1FD09A68E0321268D2061AD5F22230
:100E4000DB68D2019A580260F022D2019A584260BF
:100E50000A4A9A5882600A4A9A58C260094A9A58BD
:100E60000261094A9A584261084A9A588261084ABE
:100E70009B58C3617047C0464C05000804780000C9
:100E8000087800000C78000010780000147800004A
:100E9000187800001A4B1B681900883109681A6815
:100EA0005218016A116019008C3109681A685218C9
:100EB000416A11601A0046321278002A1ED09A68E0
:100EC000E0321268D20619D5F0224168DB68D201FF
:100ED000995081680B4A9950C1680B4A9950016931
:100EE0000A4A995041690A4A99508169094A9950B8
:100EF000C169094A99500168E83299507047C04663
:100F00004C05000804780000087800000C78000008
:100F1000107800001478000018780000F7B505007C
:100F2000FFF70CFF564F01907B68002B00D06FE05D
:100F3000FFF72BFA7B680090002B00D07CE0514B30
:100F400007271C682300BA331B885F43236AFB18FA
:100F50001A68002AFCDADB68DA001ED51B0F4A4843
:100F60001E07FFF753FF22008832126823684749A3
:100F70009B181A6801980A40212862D1902000012C
:100F800002431A6022008C32126823689B181A6888
:100F90000A40104318603C4B3343802292051343B0
:100FA000226A0024BF18FB607C607B68FFF7CFFEDD
:100FB0008023344F5B00984246D1280000F068FA45
:100FC0003F6807223B00BA331E883B6A5643F3183A
:100FD0001A68002AFCDADD68EB0003D52801000955
:100FE000FFF758FF00222A4B00981D403B6AF31878
:100FF000DD605A60FFF7CDF9002C10D1204B5B6803
:10100000002B03D008210120FFF7ACFE2000FEBD1D
:1010100001210800FFF7A6FE041E00D188E7184B47
:101020005B68002B03D002210120FFF79BFE194BC8
:101030009C42EBD0184CE9E704210120FFF792FE17
:101040007DE7802040009BE73B681A00BC32196AAC
:10105000126852181168002910DBBA331B889B18DC
:101060001B68002B0ADB04230C4A11690B43136134
:10107000012D01D030BFA3E720BFA1E7054C9FE7BA
:10108000B40500084C05000874050008FF00FFFFC8
:10109000FFFFFFDF05004200FF00420000ED00E01F
:1010A000C0228020064952008B58C0059B009B0837
:1010B00003438B50802388581B0603438B50704793
:1010C0000000264002B4714649084900095649000B
:1010D0008E4402BC7047C046002243088B4274D342
:1010E00003098B425FD3030A8B4244D3030B8B4229
:1010F00028D3030C8B420DD3FF22090212BA030C32
:101100008B4202D31212090265D0030B8B4219D312
:1011100000E0090AC30B8B4201D3CB03C01A524132
:10112000830B8B4201D38B03C01A5241430B8B427A
:1011300001D34B03C01A5241030B8B4201D30B0363
:10114000C01A5241C30A8B4201D3CB02C01A52418A
:10115000830A8B4201D38B02C01A5241430A8B424D
:1011600001D34B02C01A5241030A8B4201D30B0236
:10117000C01A5241CDD2C3098B4201D3CB01C01A50
:10118000524183098B4201D38B01C01A524143095A
:101190008B4201D34B01C01A524103098B4201D348
:1011A0000B01C01A5241C3088B4201D3CB00C01AB5
:1011B000524183088B4201D38B00C01A524143082D
:1011C0008B4201D34B00C01A5241411A00D2014652
:1011D000524110467047FFE701B5002000F006F8C5
:1011E00002BDC0460029F7D076E770477047C04679
:1011F000002B11D1002A0FD1002900D1002802D0E4
:101200000021C943080007B4024802A14018029017
:1012100003BDC046D9FFFFFF03B4684601B502987D
:1012200000F034F8019B9E4602B00CBC7047C046EB
:10123000F0B5CE469946030C9C46130447461B0C5A
:101240001D000E0061460404240C80B50700100C3C
:101250004B436543414360432C0CC01820188C4617
:10126000834203D980235B029846C44449467943AC
:101270005643030C2D042D0C8919634400044019B6
:10128000C918C0BCB946B046F0BDC046F0B5574617
:101290004E464546DE46E0B504000D0092469946AE
:1012A00083B08B4230D82DD04946504600F0D8F854
:1012B00029000600200000F0D3F8331A9846203B9E
:1012C00034D49B4653465A46934042461F005346E9
:1012D00093401E00AF423BD8AF4200D179E05B465D
:1012E000A41BBD41002B00DA76E00022002300920F
:1012F000019301235A4693400193012342469340B0
:10130000009329E08242CFD900220023009201936A
:101310000C9B002B01D01C605D600098019903B00C
:10132000F0BCBB46B246A946A046F0BD42469B462D
:1013300020239B1A5246DA40414613004A468A400F
:10134000170042461F43534693401E00AF42C3D985
:1013500000220023009201934346002BD8D0FB07C4
:1013600072081A4346467B080EE0AB4201D1A24206
:101370000CD8A41A9D41012024196D410021013E81
:1013800024184D41002E06D0AB42EED9013E24195F
:101390006D41002EF8D1009801995B460019694112
:1013A000002B24DB2B005A464446D3402A00E2405F
:1013B0001C005B461500002B2ADB26009E403300F4
:1013C00026004746BE403200801A994100900191A4
:1013D0009EE7A342BCD882E74246202300219B1A05
:1013E0000022009101920122DA40019285E74246F3
:1013F00020239B1A2A0046469A402300F340444685
:1014000013432A00E2401C005B461500002BD4DA8F
:1014100042462F002023260097409B1ADE403B00C7
:101420003343CDE71C2101231B04984201D3000C58
:1014300010391B0A984201D3000A08391B09984247
:1014400001D30009043902A2105C40187047C0465D
:10145000040302020101010100000000000000007D
:1014600010B5002903D1FFF7DDFF203002E00800AE
:10147000FFF7D8FF10BDC046F8B5C046F8BC08BCA1
:101480009E467047F8B5C046F8BC08BC9E467047FB
:1014900001B40248844601BC604700BF65020008F1
:1014A0000300000001000000010000000000000037
:1014B00005036000040000000100000000000000BF
:1014C0000100000006046000080000002C05000870
:1014D000B101001000002040000024400000004046
:1014E00000000000000023400000304000003140B8
:1014F00000009F40000022400000104000009D407E
:101500002020202020101010101D1D8017007500B5
:10151000FF03060206003604102000007FC0000012
:1015200000040000000000000019324B647D000040
:10153000000000804000080B100000000000FF01C8
:101540002002001F00800004FF0810180010001483
:101550000018001C4044484C5000000008100000D7
:101560000800000004000000041000000012000049
:10157000042100000021000000160000401140027C
:10158000C41300138013A01340138813A813200062
:101590001C00000000000000F4FCFF7F01000000C0
:1015A000000000100000000880000000C0150010BE
:1015B00080000008F8020000B003000818020000D4
:1015C00000093D0000093D0000127A0000093D00BD
:1015D000A00F000004000000F5000010C90000107A
:1015E00080B230B5C400002820D0114B1868030029
:1015F000BA331A8807235343026A9A1811680029DC
:10160000FCDA3E210B4A062511600B4A0B4911609A
:10161000A3210B4AC90055500A495450006A545836
:101620001B18002058605358002BFCDA30BDC04610
:101630004C05000804012640080126401E1F00003A
:10164000000026401C05000010B54378FF2B11D187
:1016500000F00AF90400032000F026F90121C36814
:101660005B681A680A431A601A680A42FCD12000B3
:1016700000F0E2F810BDF7B507000020019100F07E
:1016800013F93F4C050023681A005033BC3216682A
:101690001B788619002B5CD000F0EEF80090032830
:1016A00018D000F0E1F80400364A374BD158002931
:1016B000FCDAD358002B37DB344D009B032B05D1CC
:1016C0000121002000F0E8F80028F9D1200000F006
:1016D000B3F80AE0062000F0E7F82368BC331B6883
:1016E000C0180368002B02DA284D2800FEBD002038
:1016F00000F09AF8264B9842F6D00023254A1900AC
:101700000120126800F0A0F8041EEDD1002000F0C6
:101710008BF81F4A204B904203D09C42E4D0013406
:10172000F4E79C42BDD1DFE7012128001B4A00F00D
:1017300093F80028C0D10198FFF752FF002F06D080
:101740003368002BFCDB00F09FF80500B5E7144D73
:10175000B3E700F089F801210400104A280000F0E6
:101760007BF8002808D1002F08D03368002BFCDB61
:1017700000F08AF80500A9E7044DA7E7084DA5E7A2
:101780004C050008000026401C0500000500520022
:101790000101880060050008F049020050050008BA
:1017A00001005000184BF7B51B6818495A6804230C
:1017B0000C6923430B61012824D030BF1300FC3394
:1017C0001B69002B1DD1A324114B12481249E400C0
:1017D00007681E590D680195104D056006251D51BD
:1017E0003E240C600E4C3E351D511D59002DFCDA77
:1017F0000C4CFC321461A322D20007609E50019B66
:101800000B60F7BD20BFD9E74C05000800ED00E0F4
:101810000000264008012640040126401E1F00004B
:101820001C050000AAAAAAAA01B40248844601BC69
:10183000604700BF3908001001B40248844601BC6B
:10184000604700BF9303001001B40248844601BC06
:10185000604700BFD105001001B40248844601BCB6
:10186000604700BFBD04001001B40248844601BCBB
:10187000604700BF8B03001001B40248844601BCDE
:10188000604700BFE102001001B40248844601BC79
:10189000604700BF5904001001B40248844601BCEF
:1018A000604700BFB907001001B40248844601BC7C
:1018B000604700BFA503001000000000000000000A
:1018C0000000000000000000000000000000000018
:1020000000F80F08712300100D000000E5230010F8
:10201000E5230010E5230010E52300100000000078
:10202000000000000000000000000000E12300109C
:10203000E123001000000000E1230010E123001064
:10204000E1230010E1230010E1230010E123001040
:10205000E1230010E1230010E1230010E123001030
:10206000E1230010E1230010E1230010E123001020
:10207000E1230010E1230010E1230010E123001010
:1022E0000348044B834202D0034B03B118477047A5
:1022F0007026000870260008000000000548064B04
:102300001B1AD90F01EBA301491002D0034B03B1F3
:10231000184770477026000870260008000000006B
:1023200010B5064C237843B9FFF7DAFF044B13B11D
:102330000448AFF300800123237010BD5C27000820
:1023400000000000CC35001008B5054B1BB1054955
:102350000548AFF30080BDE80840FFF7CFBF00BFDE
:102360000000000060270008CC350010704770475F
:10237000FFF7FCFF72B6144C144DAC4209DA216829
:102380006268A368043BA2BFC858D050FAE70C3477
:10239000F3E70F490F4A00209142BCBF41F8040BFC
:1023A000FAE70D480D490860BFF34F8F00F084F83D
:1023B00000F068F8FFF7DBFF01F048F800F090F854
:1023C00001F068F8FEE70000D8350010F035001085
:1023D0005C270008342900080020000808ED00E010
:1023E000FEE7FEE700B504207146084202D0EFF395
:1023F000098002E0EFF30880043000F045FEFEE7BC
:1024000008B5012000F0DEFA08BD704710B50020C5
:1024100000F0BAFD00B910BD0446124B186000F080
:10242000BFFB0130B4FBF0F00F4B186000F0C2FBB3
:102430000130B4FBF0F40D4B1C60013C0C4BA3FBD2
:1024400004239B0C01330B4A13700B4BA3FB043486
:10245000A4090134094B1C60002000F095FD084BD5
:102460001860D8E7F0220008EC220008F4220008E7
:1024700083DE1B43E0220008D34D6210E4220008F3
:10248000E822000808B5094800F05EF8FFF7BDFF34
:10249000FFF7BCFF00221146032000F0F3FA0448C6
:1024A00000F04EF9034800F099F908BD0835001016
:1024B00098270008D4340010EFF3108172B6074A51
:1024C000D2F8883043F47003C2F88830BFF34F8FDE
:1024D000BFF36F8F81F31088704700BF00ED00E0FD
:1024E00082B00E4A536823F4F85353600C4B5A6C75
:1024F00022F4E0025A645A6C42F4C0025A64202268
:102500009A60074B2022DA6000230193019A054B61
:102510009A42F6D8019B01330193F7E7000030405F
:1025200000003140DF9304000230800803D0013006
:102530000238FCD100BF00BF7047EFF3108072B6C5
:10254000704780F310887047014B1860704700BFD8
:10255000F8280008074B1B6893F83730834200D8EF
:1025600001BE044B1B681A6AB3F8BE3000FB03209F
:10257000704700BFF8280008B0F1204F3AD017D8B4
:10258000802839D00DD8102838D0402801D12448CF
:102590007047002834D170474FF4A4007047214899
:1025A0007047B0F5807F2FD01F4B98422ED17047D7
:1025B0001E4B98422CD02ED31D4B98422DD8B0F1F3
:1025C000704F11D900F1805001380428E7D801A3D9
:1025D00053F820F0992500109F25001005260010C3
:1025E000ED250010F12500100E4870471148704786
:1025F00011487047002070471048704710487047D6
:10260000084870470F4870470748704705487047AB
:102610004FF4A0007047034870470248704700BF5E
:1026200002005000FF00520006005200090000A006
:10263000050000F0020052000300520005005200A5
:10264000010050000100520010B50120FFF782FF89
:102650000A4B1C68D4F8C030C358002B0BDB084B66
:102660001868FFF789FF636801229A6063689B68B6
:10267000002BFBD110BD0348FCE700BFF828000881
:102680000C29000802005000084B1B68D3F8C0302A
:10269000C358002B07DAB1F5803F00D301BE89B2E1
:1026A0004160002070470248704700BFF8280008CA
:1026B00001008A000368002B08DAC260B1F5803F90
:1026C00000D301BE89B28160002070470048704786
:1026D00001008A000A4651B1074B1B68D3F8C0308D
:1026E000C358002B05DAC36813600020704701BE91
:1026F000F2E70248704700BFF828000801008A008E
:10270000002807DB00F01F02400901239340024A22
:1027100042F82030704700BF00E100E0074B1B6823
:1027200093F83730834200D801BE044B1B681A6A05
:10273000B3F8BE3000FB0320704700BFF828000844
:10274000034B1B6803B17047014B1860FBE700BFE8
:1027500020290008F8B50D461646069F1D4A126846
:10276000002A34D01B4A11682C2200FB02F28C187C
:10277000D8B28850C3F3072262601B0CA360FFF736
:10278000CDFF20616268144B1B6893F838309A4281
:1027900000D301BE104B1B681B6A803203EB42134F
:1027A0006361A268B2F5803F00D301BEB2F5803FFD
:1027B00000D301BE91B241EA02429A60E66125620D
:1027C0000023A36117B1B7F90030A381F8BD01BEA2
:1027D000C8E700BF20290008F828000830B58FB0EE
:1027E0000023ADF830300D93044600283FD0A36994
:1027F000072B00D901BEE36A002B3AD0236B002BD4
:1028000039D00DF11C0C04F1140EBEE80F00ACE839
:102810000F00DEF80030CCF800300DF1080CA646B1
:10282000BEE80F00ACE80F00DEF80030CCF8003056
:10283000079B1733ADF83030089B0D930CAD009516
:102840000B9BA26AE16A0A98FFF784FF00210091BE
:10285000069B0A460598FFF77DFF216B284600F08E
:10286000EDFBBDF93000FFF74BFF0FB030BD01BEEF
:10287000BDE701BEC2E701BEC3E7000070B5154663
:10288000002A3BD0224A1268002A39D0204A126816
:102890002C2404FB002C04FB01214A681D4800681D
:1028A00090F838E0B2FBFEF00EFB1022012000FA97
:1028B00002F21204DCF80440B4FBFEF60EFB1644F0
:1028C00000FA04FEDCF81040E4B18869E0B924683D
:1028D000002C1BDA2C882C6014432C60DCF81020B0
:1028E000D56001228A614B62DCF81020BEF5803F82
:1028F00000D301BE1FFA8EF3936070BD01BEC1E725
:1029000001BEC3E70448F8E70448F6E70348F4E7E4
:1029100020290008F828000804028A0007028A001B
:1029200070B582B000230193044628B323692BB30A
:1029300063692BB3236A2BB36369DD682A0C0BD060
:102940002A0C12041A601B6820691D4B1B68D3F8FF
:10295000C030C358002B17DBADB24DB163691D60A9
:102960001B68636A3BB39847002363620023A3613B
:1029700063691B6802B070BD01BED7E701BED7E72F
:1029800001BED7E701BED7E701A9FFF7A3FE60B9F3
:10299000019803681E0CDBB2E2699A4206D9226AEA
:1029A00052F8233013B1984700E0002631462069E1
:1029B000FFF76AFED0E7A36A002BD7D09847D5E788
:1029C000F828000808B5064B1B683BB1044B1B6890
:1029D0002C2202FB0030FFF7A3FF08BD01BEF5E784
:1029E00020290008074B1B6893F83730834200D832
:1029F00001BE044B1B681A6AB3F8BE3000FB03200B
:102A0000704700BFF828000838B51A4B1B6893F8C8
:102A10003730834229D90D4649B30C6814F01F049E
:102A200001D0154822E0FFF7DDFF144B186004E0E9
:102A30006B68002243F8242001342B68B4EB531F49
:102A4000F6D30021FFF720FE2A4600210B4B186821
:102A5000FFF730FE08B10A4808E00021074B18686C
:102A6000FFF712FE10B1064800E0034838BD0248E7
:102A7000FCE700BFF828000803018A0024290008A9
:102A800001018A0010B50C4612B151B9084810BDB9
:102A900009B10748FBE7FFF7A5FF064B1860204682
:102AA000F5E705490C604A60FFF7AEFFEFE700BFAE
:102AB00003018A0024290008702600082DE9F0414E
:102AC0001B4B1B687BB30C46DB681A6882422CD90F
:102AD000450900F01F00012202FA00F6D3F8048035
:102AE00079B10027124B18680368002B15DA58F8E3
:102AF0002530334209D023EA060348F82530002563
:102B000004E0FFF71AFD0746ECE70A4D0021FFF746
:102B1000BBFD24B12846BDE8F081074DF9E73846F2
:102B2000FFF70FFDF6E7034DF4E7044DF2E700BFB2
:102B300024290008020188000301880004018A009A
:102B40000C4B1B687BB1DB681A6882420DD94109C6
:102B500000F01F00012282405B6853F821301342CD
:102B600005D0054870470548704705487047054837
:102B7000704700BF24290008010188000201880075
:102B800004018A0000018800044B1B681A68D3F80E
:102B90008C30D058C0F30720704700BFF8280008D9
:102BA000034B1B681A68D3F88C30D058000E70475E
:102BB000F8280008044B1B681A68D3F89030D058E6
:102BC000C0F30720704700BFF8280008064B1B68B9
:102BD00093F84430834200D801BEE030034B53F8F1
:102BE000200000F00F007047F82800080000264081
:102BF000064B1B6893F84430834200D801BEE03096
:102C0000034B53F82000C0F301107047F828000868
:102C100000002640034B186900F00400003818BF7C
:102C200001207047000027400020704700207047B7
:102C3000014B1868704700BF2C290008074BD3F8D8
:102C4000303503F00303032B05D0044BD3F83005D4
:102C500000F0010070470220704700BF00002640CE
:102C600008B5FFF7EBFF022801D0002008BD014B9B
:102C70001868FBE72829000802460C4B1B6893F8EC
:102C80004230834200D801BE02F1D003084951F816
:102C9000230000F00700042800D07047C03251F82C
:102CA000220000F01F0040F48070F6E7F8280008CA
:102CB0000000264008B5284B1B6893F84230834239
:102CC00000D801BEFFF7D8FF03280DD9B0F58A7FE1
:102CD00040D2B0F5887F0FD3A0F58870032835D88F
:102CE000DFE800F0151F3127032803D8DFE800F0E4
:102CF0003006090C002003E0002001E0FFF798FFF8
:102D000008BDFFF7ADFFFBE7FFF78EFFF8E7134BBA
:102D1000D3F80C35002B01DB0020F1E74FF4004025
:102D2000EEE7FFF777FF08B90020E9E74FF400402E
:102D3000E6E70A4BD3F83C35002B01DB0020DFE748
:102D40004FF40040DCE7FFF771FFD9E70020D7E739
:102D50000348D5E70020D3E7F82800080000264004
:102D600000127A00024BD3F88005C00F704700BFF5
:102D700000002640034638B31449D1F88025C2F339
:102D800011001860C2F30062DA71D1F88425C2F331
:102D90000C009880C2F308421A81D1F8882502F00D
:102DA0000F009872C2F30310D872C2F30C209881FE
:102DB000C2F301729A73D1F88C25C2F30221997182
:102DC000C2F308421A82704701BED5E700002640D0
:102DD0000138074B1B6893F84330834200D801BE8B
:102DE00000F5C070034B53F82000C00F704700BFC0
:102DF000F82800080000264001380F4B1B6893F8A4
:102E00004330834215D900F5C0700C4B53F8203085
:102E100003F07F020A70C3F304224A70C3F3044232
:102E20008A70C3F3C062CA70C3F301730B710020D0
:102E300070470348704700BFF8280008000026408C
:102E400001004A0070B586B001A8FFF793FFFFF7B5
:102E500089FF38B19DF81230022B01D0012102E028
:102E6000002100E00021019DBDF8084020469DF8AA
:102E70000B3083B1022681B184B10020FFF71AFF25
:102E8000A0FB0501A4FB06235408001941F1000131
:102E900000F046F902E00126EDE7002006B070BD23
:102EA0002DE9F04182B0274B1B6893F84320002A9C
:102EB00040D00446002842D093F84230834200D8E4
:102EC00001BE204B1B6893F84330A34201D200257A
:102ED00031E069462046FFF78FFF054608B100251F
:102EE00029E02046FFF774FF38B19DF80430022B2B
:102EF00001D0012302E0002300E000239DF80080C0
:102F00009DF801609DF80270ABB18EB10FB93D46DE
:102F100011E02046FFF7CEFEA0FB0801A6FB072329
:102F20005408001941F1000100F0FAF8054602E0EA
:102F3000354600E00025284602B0BDE8F081054690
:102F4000F9E700BFF828000810B504460D4B1B68D0
:102F500093F84230834200D801BE4CB1094B1B6844
:102F600093F84330A34208D22046FFF7A3FE10BDDA
:102F7000FFF768FF0028FAD1F6E72046FFF790FF39
:102F8000F8E700BFF828000870B50646FFF730FEE6
:102F90000446012585403046FFF718FEFFF7D4FFB1
:102FA00000EB5500E04070BD10B50020FFF7ECFFCE
:102FB0000446FFF7F5FD013004EB5004B4FBF0F0DC
:102FC00010BD10B5FFF7F0FF0446FFF7DDFD01303F
:102FD00004EB5004B4FBF0F010BD0000002808DB47
:102FE0004901C9B200F1604000F5614080F800136A
:102FF000704700F00F004901C9B2014B19547047E6
:1030000014ED00E00A4B9A680A4B9A4204D0103043
:10301000094B53F82000704739B100F11003054AFD
:1030200052F8230042F82310704701BEF5E700BFB5
:1030300000ED00E00020000800200010C8B138B505
:103040000D4604464368072B00D901BE6168B4F9F8
:103050000000FFF7C3FF084B9A68084B9A4201D063
:10306000002038BD2946B4F90000FFF7CBFF00204F
:10307000F7E70348704700BF00ED00E000200008BC
:1030800001005600FEE7000008B50268224B1A60F6
:1030900042685A6082689A60C268DA6002691A619E
:1030A00042695A6182699A61C269DA611B4A916A0E
:1030B0001962D16A5962516A9962516BD962926BF5
:1030C0001A63F1EE103A13F0900F22D0026A124BFD
:1030D0005A63426A9A63826ADA63C26A1A64026B4A
:1030E0005A64426B9A64826BDA64C26B1A65026C32
:1030F0005A65426C9A65826CDA65C26C1A66026D1A
:103100005A66426D9A66826DDA66C26D1A67026E01
:103110005A67FFF7B7FF08BDC426000800ED00E0BE
:1031200053B94AB9002908BF00281CBF4FF0FF312E
:103130004FF0FF3000F088B9ADF1080C6DE904CE16
:1031400000F006F8DDF804E0DDE9022304B0704782
:103150002DE9F047089D0F4604468C46002B48D1C8
:103160008A42164661D9B2FA82F34BB1C3F120020A
:1031700001FA03FC20FA02F29E4042EA0C0C9C4049
:103180004FEA164EB7B2BCFBFEF1220C0EFB11CC7F
:1031900042EA0C4201FB07F0904209D9B21801F152
:1031A000FF3C80F0EE80904240F2EB8002393244E6
:1031B000121AA4B2B2FBFEF00EFB102244EA024443
:1031C00000FB07F7A74209D9341900F1FF3280F05C
:1031D000DA80A74240F2D7803444023840EA014006
:1031E000E41B00211DB1DC400023C5E90043BDE81C
:1031F000F0878B4206D90DB1C5E9000100210846D0
:10320000BDE8F087B3FA83F1002948D1BB4202D36D
:10321000824200F20781841A67EB03020120944680
:10322000002DE4D0C5E9004CE1E7002A00F09280CF
:10323000B2FA82F3002B40F0A8808A1A4FEA164EA9
:103240001FFA86FC0121200CB2FBFEF70EFB1722B1
:1032500040EA02420CFB07F0904207D9B21807F18E
:10326000FF3802D2904200F2E2804746121AA4B21E
:10327000B2FBFEF00EFB102244EA02440CFB00FC01
:10328000A44507D9341900F1FF3202D2A44500F257
:10329000CB801046A4EB0C0440EA0740A2E7C1F142
:1032A00020068B4022FA06FC4CEA030C07FA01F4D4
:1032B00020FA06F3F7404FEA1C49234300FA01F8CD
:1032C0001FFA8CFEB7FBF9F01C0C09FB107744EADF
:1032D000074400FB0EF7A74202FA01F20AD91CEBE1
:1032E000040400F1FF3A80F09B80A74240F29880EE
:1032F00002386444E41B9FB2B4FBF9F309FB1344A6
:1033000047EA044403FB0EFEA64509D91CEB04045E
:1033100003F1FF3780F08280A6457FD9023B6444E9
:1033200043EA0040A4EB0E04A0FB02E7BC42734654
:10333000B94663D360D05DB1B8EB030264EB090416
:1033400004FA06F622FA01F31E43CC40C5E90064F4
:1033500000214CE76208480842EAC1710B0C43EABD
:1033600000438AB242EA0342B3FBF6F1E407B446F3
:103370003746B6461F23B0FBF6F0D21B41EA0041A8
:1033800061E7614614E7104628E7C3F1200120FAFF
:1033900001F29E4027FA01F19F403A434FEA164E50
:1033A0001FFA86FCB1FBFEF70EFB1710110C41EA69
:1033B000004107FB0CF8884504FA03F43AD9711868
:1033C00007F1FF3001D288451FD8A1EB0801B1FBFE
:1033D000FEF808FB0CF70EFB181192B242EA01420C
:1033E000BA422FD2B21808F1FF31C6D2BA42C4D2C3
:1033F000A8F102013244C0E7F0459CD2BEEB0203C3
:1034000067EB0C070138B94695E7A6EB080841447D
:10341000B81EB1FBFEF808FB0CF7DCE73B467FE784
:10342000504667E70846FBE63444023832E7023F7D
:1034300032441BE7A1EB08013846B1FBFEF808FB5C
:103440000CF7C8E7414698E7704700BF70B50D4BD1
:103450000D4D5B1B9C100026A64209D100F02EF8F2
:103460000A4D0B4B5B1B9C100026A64205D170BD7C
:1034700055F8043B98470136EEE755F8043B98476A
:103480000136F2E7F8220008F8220008F8220008C6
:10349000FC22000838B5074D074C641BA4101CB96A
:1034A000BDE8384000F010B8013C55F8243098478A
:1034B000F5E700BFFC22000800230008F8B500BFB4
:1034C000F8BC08BC9E467047F8B500BFF8BC08BC05
:1034D0009E4670470300000001000000010000004C
:1034E000000000000503600004000000010000006F
:1034F0000000000001000000060460000800000059
:10350000782700080124001000002040000024401B
:103510000000004000000000000023400000304098
:103520000000314000009F40000022400000104099
:1035300000009D402020202020202020201010105E
:10354000101D1D8017007500FF03060206003604DB
:10355000102000007FC000000004000000000000F8
:103560000019324B647D0000000000804000080B11
:10357000100000000000FF012002001F0080000476
:10358000FF081018001000140018001C4044484C9C
:1035900050000000081000000800000004000000B7
:1035A00004100000001200000421000000210000AF
:1035B0000016000040114002C41300138013A01332
:1035C00040138813A81320001C0000000000000016
:0835D00080FBFF7F01000000F9
:1035D8000020001000200008E0020000F83500106C
:0835E800E0220008900300003E
:0835F0005C270008D80100006F
:1035F80008000000401F000000127A0000093D008A
:1036080000127A0000127A004923001021230010CA
:1036180080B2C10048B3154B1B681A6AB3F8BE30B4
:10362800C3EBC303D358002BF5DA114B3E22C3F882
:10363800042141F61E72C3F808210622C3F8182592
:1036480021F07F41C3F81C15D3F81C35074B1B68C4
:103658001A6AB3F8BE30C3EBC303134400225A609E
:10366800034BD3F81C35002BFADA7047F82800080A
:10367800000026404378FF2B00D0704710B500F0BB
:103688005BF90446032000F06BF9C3680A4A13602B
:103698000A4A002111600A4A012111605A68094B3F
:1036A8001A6013680B431360136813F0010FFBD102
:1036B800204600F049F910BD08290008042900082F
:1036C80000290008FC280008F8B5052000F048F992
:1036D8000646194F3B685B6803F570431C6EA4B23D
:1036E80000F02AF905463B681968D3F898208958EC
:1036F8004FF0B052D27A013C032C0ED8D2B2032933
:103708000FD000F035F90D4AA2FB00239B090C48A5
:10371800B0FBF3F08230FFF77BFF284600F014F986
:10372800F8BD002AEDD10822B2601968D3F89820B4
:103738008A58032AF9D0E4E7F8280008D34D621024
:1037480040420F002DE9F84307468846012000F063
:1037580007F90446444B1B68D3F8C050054493F856
:103768005430002B62D04FF0B053DB7A53BB0520A6
:1037780000F0F6F83C4B1B68D3F8C030C358002B58
:103788006CDB002000F0E8F8384B984268D0002342
:10379800374A12680121184600F0DAF8064610B1D7
:1037A800344C2BE00136002000F0D6F82F4B98421D
:1037B80002D0314B9E42F5D92F4B9E4252D84FF042
:1037C800010901E04FF0000900F0B6F806462B4B5E
:1037D800D3F81C35002BFADA284BD3F81C35002B0C
:1037E8000FDB244CB9F1000F05D00121002000F0B7
:1037F800BBF80028F9D1304600F0A6F82046BDE80D
:10380800F8831F4A0121204600F0B6F808B1194C88
:10381800E8E74046FFF7FCFE37B12B68002BFCDBDE
:1038280000F08EF80446DDE7164CDBE700F084F87C
:103838000646134A0121204600F09EF838B95FB1C8
:103848002B68002BFCDB00F07BF8044600E0094CF9
:10385800304600F079F8D1E70A4CF9E7054CCDE796
:10386800044CCBE7034CC9E7F8280008010188009D
:103878001C29000805005200EF49020000002640FC
:103888000C2900080100500030B4274B1B685C6805
:103898001968D3F89C30194411E020BF234B1B78DA
:1038A80003B120BF214B01221A70214A136923F06A
:1038B800040313610B6803F00303022B0AD11C4AAB
:1038C800136943F004031361BFF34F8F0128E4D059
:1038D80030BFEAE7D4F80C311BBB164BD3F808010C
:1038E800D3F81815D3F8042141F61E75C3F808510A
:1038F8000625C3F818553E25C3F804514425C3F8D6
:103908001C550C4BD3F81C35002BFADA4FF0AA33B0
:10391800C4F80C31074BC3F80801C3F81815C3F8ED
:10392800042130BC704700BFF8280008302900087F
:1039380000ED00E0000026405FF800F03B25001095
:103948005FF800F0492600105FF800F043250010EA
:103958005FF800F07D2800105FF800F0412B0010A0
:103968005FF800F0552500105FF800F0BD2A001040
:103978005FF800F0C32F00105FF800F0B5260010C4
:08398800000000000000000037
:040000051000237153
:00000001FF
